{
  "_format": "hh-sol-artifact-1",
  "contractName": "BaseOraclePriceConsumer",
  "sourceName": "contracts/oracle/BaseOraclePriceConsumer.sol",
  "abi": [
    {
      "inputs": [
        {
          "internalType": "address",
          "name": "_feeOracle",
          "type": "address"
        }
      ],
      "stateMutability": "nonpayable",
      "type": "constructor"
    },
    {
      "inputs": [],
      "name": "getDecimals",
      "outputs": [
        {
          "internalType": "uint8",
          "name": "",
          "type": "uint8"
        }
      ],
      "stateMutability": "view",
      "type": "function"
    },
    {
      "inputs": [],
      "name": "getLatestPrice",
      "outputs": [
        {
          "internalType": "int256",
          "name": "",
          "type": "int256"
        }
      ],
      "stateMutability": "view",
      "type": "function"
    }
  ],
  "bytecode": "0x608060405234801561001057600080fd5b50604051610500380380610500833981810160405281019061003291906100db565b806000806101000a81548173ffffffffffffffffffffffffffffffffffffffff021916908373ffffffffffffffffffffffffffffffffffffffff16021790555050610108565b600080fd5b600073ffffffffffffffffffffffffffffffffffffffff82169050919050565b60006100a88261007d565b9050919050565b6100b88161009d565b81146100c357600080fd5b50565b6000815190506100d5816100af565b92915050565b6000602082840312156100f1576100f0610078565b5b60006100ff848285016100c6565b91505092915050565b6103e9806101176000396000f3fe608060405234801561001057600080fd5b50600436106100365760003560e01c80638e15f4731461003b578063f0141d8414610059575b600080fd5b610043610077565b60405161005091906101e4565b60405180910390f35b610061610125565b60405161006e919061021b565b60405180910390f35b60008060008054906101000a900473ffffffffffffffffffffffffffffffffffffffff1673ffffffffffffffffffffffffffffffffffffffff1663feaf968c6040518163ffffffff1660e01b815260040160a06040518083038186803b1580156100e057600080fd5b505afa1580156100f4573d6000803e3d6000fd5b505050506040513d601f19601f8201168201806040525081019061011891906102df565b5050509150508091505090565b60008060009054906101000a900473ffffffffffffffffffffffffffffffffffffffff1673ffffffffffffffffffffffffffffffffffffffff1663313ce5676040518163ffffffff1660e01b815260040160206040518083038186803b15801561018e57600080fd5b505afa1580156101a2573d6000803e3d6000fd5b505050506040513d601f19601f820116820180604052508101906101c69190610386565b905090565b6000819050919050565b6101de816101cb565b82525050565b60006020820190506101f960008301846101d5565b92915050565b600060ff82169050919050565b610215816101ff565b82525050565b6000602082019050610230600083018461020c565b92915050565b600080fd5b600069ffffffffffffffffffff82169050919050565b61025a8161023b565b811461026557600080fd5b50565b60008151905061027781610251565b92915050565b610286816101cb565b811461029157600080fd5b50565b6000815190506102a38161027d565b92915050565b6000819050919050565b6102bc816102a9565b81146102c757600080fd5b50565b6000815190506102d9816102b3565b92915050565b600080600080600060a086880312156102fb576102fa610236565b5b600061030988828901610268565b955050602061031a88828901610294565b945050604061032b888289016102ca565b935050606061033c888289016102ca565b925050608061034d88828901610268565b9150509295509295909350565b610363816101ff565b811461036e57600080fd5b50565b6000815190506103808161035a565b92915050565b60006020828403121561039c5761039b610236565b5b60006103aa84828501610371565b9150509291505056fea26469706673582212203f668e9ce70394a7d1b0991d888fd8f31c14447399c87fc3c23b7501357017c764736f6c63430008090033",
  "linkReferences": {},
  "deployedLinkReferences": {}
}