{
  "_format": "hh-sol-artifact-1",
  "contractName": "BaseSwapper",
  "sourceName": "contracts/swapper/BaseSwapper.sol",
  "abi": [
    {
      "inputs": [
        {
          "internalType": "address",
          "name": "_router",
          "type": "address"
        }
      ],
      "stateMutability": "nonpayable",
      "type": "constructor"
    },
    {
      "inputs": [],
      "name": "router",
      "outputs": [
        {
          "internalType": "address",
          "name": "",
          "type": "address"
        }
      ],
      "stateMutability": "view",
      "type": "function"
    },
    {
      "inputs": [
        {
          "internalType": "address",
          "name": "_tokenA",
          "type": "address"
        },
        {
          "internalType": "address",
          "name": "_tokenB",
          "type": "address"
        },
        {
          "internalType": "uint256",
          "name": "_amountA",
          "type": "uint256"
        },
        {
          "internalType": "uint256",
          "name": "_amountB",
          "type": "uint256"
        }
      ],
      "name": "swap",
      "outputs": [],
      "stateMutability": "nonpayable",
      "type": "function"
    }
  ],
  "bytecode": "0x608060405234801561001057600080fd5b50604051610316380380610316833981810160405281019061003291906100db565b806000806101000a81548173ffffffffffffffffffffffffffffffffffffffff021916908373ffffffffffffffffffffffffffffffffffffffff16021790555050610108565b600080fd5b600073ffffffffffffffffffffffffffffffffffffffff82169050919050565b60006100a88261007d565b9050919050565b6100b88161009d565b81146100c357600080fd5b50565b6000815190506100d5816100af565b92915050565b6000602082840312156100f1576100f0610078565b5b60006100ff848285016100c6565b91505092915050565b6101ff806101176000396000f3fe608060405234801561001057600080fd5b50600436106100365760003560e01c8063f887ea401461003b578063fe02915614610059575b600080fd5b610043610075565b60405161005091906100e0565b60405180910390f35b610073600480360381019061006e9190610162565b610099565b005b60008054906101000a900473ffffffffffffffffffffffffffffffffffffffff1681565b50505050565b600073ffffffffffffffffffffffffffffffffffffffff82169050919050565b60006100ca8261009f565b9050919050565b6100da816100bf565b82525050565b60006020820190506100f560008301846100d1565b92915050565b600080fd5b610109816100bf565b811461011457600080fd5b50565b60008135905061012681610100565b92915050565b6000819050919050565b61013f8161012c565b811461014a57600080fd5b50565b60008135905061015c81610136565b92915050565b6000806000806080858703121561017c5761017b6100fb565b5b600061018a87828801610117565b945050602061019b87828801610117565b93505060406101ac8782880161014d565b92505060606101bd8782880161014d565b9150509295919450925056fea26469706673582212203a928d99b0b3ccb13093e3c4c80c638d1c1600458f8557869a2f22949923a9d164736f6c63430008090033",
  "linkReferences": {},
  "deployedLinkReferences": {}
}