{
  "_format": "hh-sol-artifact-1",
  "contractName": "MasterChef",
  "sourceName": "contracts/farming/MasterChef.sol",
  "abi": [
    {
      "inputs": [
        {
          "internalType": "contract IERC20",
          "name": "_erc20",
          "type": "address"
        },
        {
          "internalType": "uint256",
          "name": "_rewardPerBlock",
          "type": "uint256"
        },
        {
          "internalType": "uint256",
          "name": "_startBlock",
          "type": "uint256"
        }
      ],
      "stateMutability": "nonpayable",
      "type": "constructor"
    },
    {
      "anonymous": false,
      "inputs": [
        {
          "indexed": true,
          "internalType": "address",
          "name": "user",
          "type": "address"
        },
        {
          "indexed": true,
          "internalType": "uint256",
          "name": "pid",
          "type": "uint256"
        },
        {
          "indexed": false,
          "internalType": "uint256",
          "name": "amount",
          "type": "uint256"
        }
      ],
      "name": "Deposit",
      "type": "event"
    },
    {
      "anonymous": false,
      "inputs": [
        {
          "indexed": true,
          "internalType": "address",
          "name": "user",
          "type": "address"
        },
        {
          "indexed": true,
          "internalType": "uint256",
          "name": "pid",
          "type": "uint256"
        },
        {
          "indexed": false,
          "internalType": "uint256",
          "name": "amount",
          "type": "uint256"
        }
      ],
      "name": "EmergencyWithdraw",
      "type": "event"
    },
    {
      "anonymous": false,
      "inputs": [
        {
          "indexed": true,
          "internalType": "bytes32",
          "name": "role",
          "type": "bytes32"
        },
        {
          "indexed": true,
          "internalType": "bytes32",
          "name": "previousAdminRole",
          "type": "bytes32"
        },
        {
          "indexed": true,
          "internalType": "bytes32",
          "name": "newAdminRole",
          "type": "bytes32"
        }
      ],
      "name": "RoleAdminChanged",
      "type": "event"
    },
    {
      "anonymous": false,
      "inputs": [
        {
          "indexed": true,
          "internalType": "bytes32",
          "name": "role",
          "type": "bytes32"
        },
        {
          "indexed": true,
          "internalType": "address",
          "name": "account",
          "type": "address"
        },
        {
          "indexed": true,
          "internalType": "address",
          "name": "sender",
          "type": "address"
        }
      ],
      "name": "RoleGranted",
      "type": "event"
    },
    {
      "anonymous": false,
      "inputs": [
        {
          "indexed": true,
          "internalType": "bytes32",
          "name": "role",
          "type": "bytes32"
        },
        {
          "indexed": true,
          "internalType": "address",
          "name": "account",
          "type": "address"
        },
        {
          "indexed": true,
          "internalType": "address",
          "name": "sender",
          "type": "address"
        }
      ],
      "name": "RoleRevoked",
      "type": "event"
    },
    {
      "anonymous": false,
      "inputs": [
        {
          "indexed": true,
          "internalType": "address",
          "name": "user",
          "type": "address"
        },
        {
          "indexed": true,
          "internalType": "uint256",
          "name": "pid",
          "type": "uint256"
        },
        {
          "indexed": false,
          "internalType": "uint256",
          "name": "amount",
          "type": "uint256"
        }
      ],
      "name": "Withdraw",
      "type": "event"
    },
    {
      "inputs": [],
      "name": "DEFAULT_ADMIN_ROLE",
      "outputs": [
        {
          "internalType": "bytes32",
          "name": "",
          "type": "bytes32"
        }
      ],
      "stateMutability": "view",
      "type": "function"
    },
    {
      "inputs": [
        {
          "internalType": "uint256",
          "name": "_allocPoint",
          "type": "uint256"
        },
        {
          "internalType": "contract IERC20",
          "name": "_lpToken",
          "type": "address"
        },
        {
          "internalType": "bool",
          "name": "_withUpdate",
          "type": "bool"
        }
      ],
      "name": "add",
      "outputs": [],
      "stateMutability": "nonpayable",
      "type": "function"
    },
    {
      "inputs": [
        {
          "internalType": "uint256",
          "name": "_pid",
          "type": "uint256"
        },
        {
          "internalType": "uint256",
          "name": "_amount",
          "type": "uint256"
        }
      ],
      "name": "deposit",
      "outputs": [],
      "stateMutability": "nonpayable",
      "type": "function"
    },
    {
      "inputs": [
        {
          "internalType": "uint256",
          "name": "_pid",
          "type": "uint256"
        },
        {
          "internalType": "address",
          "name": "_user",
          "type": "address"
        }
      ],
      "name": "deposited",
      "outputs": [
        {
          "internalType": "uint256",
          "name": "",
          "type": "uint256"
        }
      ],
      "stateMutability": "view",
      "type": "function"
    },
    {
      "inputs": [
        {
          "internalType": "uint256",
          "name": "_pid",
          "type": "uint256"
        }
      ],
      "name": "emergencyWithdraw",
      "outputs": [],
      "stateMutability": "nonpayable",
      "type": "function"
    },
    {
      "inputs": [],
      "name": "endBlock",
      "outputs": [
        {
          "internalType": "uint256",
          "name": "",
          "type": "uint256"
        }
      ],
      "stateMutability": "view",
      "type": "function"
    },
    {
      "inputs": [],
      "name": "erc20",
      "outputs": [
        {
          "internalType": "contract IERC20",
          "name": "",
          "type": "address"
        }
      ],
      "stateMutability": "view",
      "type": "function"
    },
    {
      "inputs": [
        {
          "internalType": "uint256",
          "name": "_amount",
          "type": "uint256"
        }
      ],
      "name": "fund",
      "outputs": [],
      "stateMutability": "nonpayable",
      "type": "function"
    },
    {
      "inputs": [
        {
          "internalType": "bytes32",
          "name": "role",
          "type": "bytes32"
        }
      ],
      "name": "getRoleAdmin",
      "outputs": [
        {
          "internalType": "bytes32",
          "name": "",
          "type": "bytes32"
        }
      ],
      "stateMutability": "view",
      "type": "function"
    },
    {
      "inputs": [
        {
          "internalType": "bytes32",
          "name": "role",
          "type": "bytes32"
        },
        {
          "internalType": "address",
          "name": "account",
          "type": "address"
        }
      ],
      "name": "grantRole",
      "outputs": [],
      "stateMutability": "nonpayable",
      "type": "function"
    },
    {
      "inputs": [
        {
          "internalType": "bytes32",
          "name": "role",
          "type": "bytes32"
        },
        {
          "internalType": "address",
          "name": "account",
          "type": "address"
        }
      ],
      "name": "hasRole",
      "outputs": [
        {
          "internalType": "bool",
          "name": "",
          "type": "bool"
        }
      ],
      "stateMutability": "view",
      "type": "function"
    },
    {
      "inputs": [],
      "name": "massUpdatePools",
      "outputs": [],
      "stateMutability": "nonpayable",
      "type": "function"
    },
    {
      "inputs": [],
      "name": "paidOut",
      "outputs": [
        {
          "internalType": "uint256",
          "name": "",
          "type": "uint256"
        }
      ],
      "stateMutability": "view",
      "type": "function"
    },
    {
      "inputs": [
        {
          "internalType": "uint256",
          "name": "_pid",
          "type": "uint256"
        },
        {
          "internalType": "address",
          "name": "_user",
          "type": "address"
        }
      ],
      "name": "pending",
      "outputs": [
        {
          "internalType": "uint256",
          "name": "",
          "type": "uint256"
        }
      ],
      "stateMutability": "view",
      "type": "function"
    },
    {
      "inputs": [
        {
          "internalType": "uint256",
          "name": "",
          "type": "uint256"
        }
      ],
      "name": "poolInfo",
      "outputs": [
        {
          "internalType": "contract IERC20",
          "name": "lpToken",
          "type": "address"
        },
        {
          "internalType": "uint256",
          "name": "allocPoint",
          "type": "uint256"
        },
        {
          "internalType": "uint256",
          "name": "lastRewardBlock",
          "type": "uint256"
        },
        {
          "internalType": "uint256",
          "name": "accERC20PerShare",
          "type": "uint256"
        }
      ],
      "stateMutability": "view",
      "type": "function"
    },
    {
      "inputs": [],
      "name": "poolLength",
      "outputs": [
        {
          "internalType": "uint256",
          "name": "",
          "type": "uint256"
        }
      ],
      "stateMutability": "view",
      "type": "function"
    },
    {
      "inputs": [
        {
          "internalType": "bytes32",
          "name": "role",
          "type": "bytes32"
        },
        {
          "internalType": "address",
          "name": "account",
          "type": "address"
        }
      ],
      "name": "renounceRole",
      "outputs": [],
      "stateMutability": "nonpayable",
      "type": "function"
    },
    {
      "inputs": [
        {
          "internalType": "bytes32",
          "name": "role",
          "type": "bytes32"
        },
        {
          "internalType": "address",
          "name": "account",
          "type": "address"
        }
      ],
      "name": "revokeRole",
      "outputs": [],
      "stateMutability": "nonpayable",
      "type": "function"
    },
    {
      "inputs": [],
      "name": "rewardPerBlock",
      "outputs": [
        {
          "internalType": "uint256",
          "name": "",
          "type": "uint256"
        }
      ],
      "stateMutability": "view",
      "type": "function"
    },
    {
      "inputs": [
        {
          "internalType": "uint256",
          "name": "_pid",
          "type": "uint256"
        },
        {
          "internalType": "uint256",
          "name": "_allocPoint",
          "type": "uint256"
        },
        {
          "internalType": "bool",
          "name": "_withUpdate",
          "type": "bool"
        }
      ],
      "name": "set",
      "outputs": [],
      "stateMutability": "nonpayable",
      "type": "function"
    },
    {
      "inputs": [],
      "name": "startBlock",
      "outputs": [
        {
          "internalType": "uint256",
          "name": "",
          "type": "uint256"
        }
      ],
      "stateMutability": "view",
      "type": "function"
    },
    {
      "inputs": [
        {
          "internalType": "bytes4",
          "name": "interfaceId",
          "type": "bytes4"
        }
      ],
      "name": "supportsInterface",
      "outputs": [
        {
          "internalType": "bool",
          "name": "",
          "type": "bool"
        }
      ],
      "stateMutability": "view",
      "type": "function"
    },
    {
      "inputs": [],
      "name": "totalAllocPoint",
      "outputs": [
        {
          "internalType": "uint256",
          "name": "",
          "type": "uint256"
        }
      ],
      "stateMutability": "view",
      "type": "function"
    },
    {
      "inputs": [],
      "name": "totalPending",
      "outputs": [
        {
          "internalType": "uint256",
          "name": "",
          "type": "uint256"
        }
      ],
      "stateMutability": "view",
      "type": "function"
    },
    {
      "inputs": [
        {
          "internalType": "uint256",
          "name": "_pid",
          "type": "uint256"
        }
      ],
      "name": "updatePool",
      "outputs": [],
      "stateMutability": "nonpayable",
      "type": "function"
    },
    {
      "inputs": [
        {
          "internalType": "uint256",
          "name": "",
          "type": "uint256"
        },
        {
          "internalType": "address",
          "name": "",
          "type": "address"
        }
      ],
      "name": "userInfo",
      "outputs": [
        {
          "internalType": "uint256",
          "name": "amount",
          "type": "uint256"
        },
        {
          "internalType": "uint256",
          "name": "rewardDebt",
          "type": "uint256"
        }
      ],
      "stateMutability": "view",
      "type": "function"
    },
    {
      "inputs": [
        {
          "internalType": "uint256",
          "name": "_pid",
          "type": "uint256"
        },
        {
          "internalType": "uint256",
          "name": "_amount",
          "type": "uint256"
        }
      ],
      "name": "withdraw",
      "outputs": [],
      "stateMutability": "nonpayable",
      "type": "function"
    }
  ],
  "bytecode": "0x6080604052600060035560006007553480156200001b57600080fd5b5060405162003093380380620030938339818101604052810190620000419190620002da565b600180819055506200005d6000801b33620000be60201b60201c565b82600260006101000a81548173ffffffffffffffffffffffffffffffffffffffff021916908373ffffffffffffffffffffffffffffffffffffffff160217905550816004819055508060088190555060085460098190555050505062000336565b620000d08282620001af60201b60201c565b620001ab57600160008084815260200190815260200160002060000160008373ffffffffffffffffffffffffffffffffffffffff1673ffffffffffffffffffffffffffffffffffffffff16815260200190815260200160002060006101000a81548160ff021916908315150217905550620001506200021960201b60201c565b73ffffffffffffffffffffffffffffffffffffffff168173ffffffffffffffffffffffffffffffffffffffff16837f2f8788117e7eff1d82e926ec794901d17c78024a50270940304540a733656f0d60405160405180910390a45b5050565b600080600084815260200190815260200160002060000160008373ffffffffffffffffffffffffffffffffffffffff1673ffffffffffffffffffffffffffffffffffffffff16815260200190815260200160002060009054906101000a900460ff16905092915050565b600033905090565b600080fd5b600073ffffffffffffffffffffffffffffffffffffffff82169050919050565b6000620002538262000226565b9050919050565b6000620002678262000246565b9050919050565b62000279816200025a565b81146200028557600080fd5b50565b60008151905062000299816200026e565b92915050565b6000819050919050565b620002b4816200029f565b8114620002c057600080fd5b50565b600081519050620002d481620002a9565b92915050565b600080600060608486031215620002f657620002f562000221565b5b6000620003068682870162000288565b93505060206200031986828701620002c3565b92505060406200032c86828701620002c3565b9150509250925092565b612d4d80620003466000396000f3fe608060405234801561001057600080fd5b50600436106101a95760003560e01c80635312ea8e116100f957806393f1a40b11610097578063ca1d209d11610071578063ca1d209d146104ae578063d547741f146104ca578063e2bbb158146104e6578063e4c75c2714610502576101a9565b806393f1a40b1461042f578063a217fddf14610460578063a23831061461047e576101a9565b806364482f79116100d357806364482f79146103a7578063785e9e86146103c35780638ae39cac146103e157806391d14854146103ff576101a9565b80635312ea8e146103635780635c76ca2d1461037f578063630b5ba11461039d576101a9565b8063248a9ca3116101665780633f90916a116101405780633f90916a146102ef578063441a3e701461030d57806348cd4cb11461032957806351eb05a614610347576101a9565b8063248a9ca3146102875780632f2ff15d146102b757806336568abe146102d3576101a9565b806301ffc9a7146101ae578063081e3eda146101de578063083c6323146101fc5780631526fe271461021a57806317caf6f11461024d5780631eaaa0451461026b575b600080fd5b6101c860048036038101906101c39190611f59565b610532565b6040516101d59190611fa1565b60405180910390f35b6101e66105ac565b6040516101f39190611fd5565b60405180910390f35b6102046105b9565b6040516102119190611fd5565b60405180910390f35b610234600480360381019061022f919061201c565b6105bf565b60405161024494939291906120c8565b60405180910390f35b61025561061f565b6040516102629190611fd5565b60405180910390f35b61028560048036038101906102809190612189565b610625565b005b6102a1600480360381019061029c9190612212565b61074c565b6040516102ae919061224e565b60405180910390f35b6102d160048036038101906102cc9190612295565b61076b565b005b6102ed60048036038101906102e89190612295565b61078c565b005b6102f761080f565b6040516103049190611fd5565b60405180910390f35b610327600480360381019061032291906122d5565b610877565b005b610331610aa9565b60405161033e9190611fd5565b60405180910390f35b610361600480360381019061035c919061201c565b610aaf565b005b61037d6004803603810190610378919061201c565b610c8b565b005b610387610dc4565b6040516103949190611fd5565b60405180910390f35b6103a5610dca565b005b6103c160048036038101906103bc9190612315565b610dfd565b005b6103cb610ea3565b6040516103d89190612368565b60405180910390f35b6103e9610ec9565b6040516103f69190611fd5565b60405180910390f35b61041960048036038101906104149190612295565b610ecf565b6040516104269190611fa1565b60405180910390f35b61044960048036038101906104449190612383565b610f39565b6040516104579291906123c3565b60405180910390f35b610468610f6a565b604051610475919061224e565b60405180910390f35b61049860048036038101906104939190612383565b610f71565b6040516104a59190611fd5565b60405180910390f35b6104c860048036038101906104c3919061201c565b610fd4565b005b6104e460048036038101906104df9190612295565b611097565b005b61050060048036038101906104fb91906122d5565b6110b8565b005b61051c60048036038101906105179190612383565b6112b3565b6040516105299190611fd5565b60405180910390f35b60007f7965db0b000000000000000000000000000000000000000000000000000000007bffffffffffffffffffffffffffffffffffffffffffffffffffffffff1916827bffffffffffffffffffffffffffffffffffffffffffffffffffffffff191614806105a557506105a48261152b565b5b9050919050565b6000600580549050905090565b60095481565b600581815481106105cf57600080fd5b90600052602060002090600402016000915090508060000160009054906101000a900473ffffffffffffffffffffffffffffffffffffffff16908060010154908060020154908060030154905084565b60075481565b6106326000801b33610ecf565b61063b57600080fd5b801561064a57610649610dca565b5b6000600854431161065d5760085461065f565b435b90506106768460075461159590919063ffffffff16565b600781905550600560405180608001604052808573ffffffffffffffffffffffffffffffffffffffff1681526020018681526020018381526020016000815250908060018154018082558091505060019003906000526020600020906004020160009091909190915060008201518160000160006101000a81548173ffffffffffffffffffffffffffffffffffffffff021916908373ffffffffffffffffffffffffffffffffffffffff160217905550602082015181600101556040820151816002015560608201518160030155505050505050565b6000806000838152602001908152602001600020600101549050919050565b6107748261074c565b61077d816115ab565b61078783836115bf565b505050565b61079461169f565b73ffffffffffffffffffffffffffffffffffffffff168173ffffffffffffffffffffffffffffffffffffffff1614610801576040517f08c379a00000000000000000000000000000000000000000000000000000000081526004016107f89061246f565b60405180910390fd5b61080b82826116a7565b5050565b600060085443116108235760009050610874565b6000600954431061083657600954610838565b435b90506108706003546108626008548461085191906124be565b60045461178890919063ffffffff16565b61179e90919063ffffffff16565b9150505b90565b60006005838154811061088d5761088c6124f2565b5b9060005260206000209060040201905060006006600085815260200190815260200160002060003373ffffffffffffffffffffffffffffffffffffffff1673ffffffffffffffffffffffffffffffffffffffff16815260200190815260200160002090508281600001541015610938576040517f08c379a000000000000000000000000000000000000000000000000000000000815260040161092f90612593565b60405180910390fd5b61094184610aaf565b600061099582600101546109876ec097ce7bc90715b34b9f10000000006109798760030154876000015461178890919063ffffffff16565b6117b490919063ffffffff16565b61179e90919063ffffffff16565b90506109a133826117ca565b6109b884836000015461179e90919063ffffffff16565b82600001819055506109fc6ec097ce7bc90715b34b9f10000000006109ee8560030154856000015461178890919063ffffffff16565b6117b490919063ffffffff16565b8260010181905550610a5333858560000160009054906101000a900473ffffffffffffffffffffffffffffffffffffffff1673ffffffffffffffffffffffffffffffffffffffff166118979092919063ffffffff16565b843373ffffffffffffffffffffffffffffffffffffffff167ff279e6a1f5e320cca91135676d9cb6e44ca8a08c0b88342bcdb1144f6511b56886604051610a9a9190611fd5565b60405180910390a35050505050565b60085481565b600060058281548110610ac557610ac46124f2565b5b9060005260206000209060040201905060006009544310610ae857600954610aea565b435b905081600201548111610afe575050610c88565b60008260000160009054906101000a900473ffffffffffffffffffffffffffffffffffffffff1673ffffffffffffffffffffffffffffffffffffffff166370a08231306040518263ffffffff1660e01b8152600401610b5d91906125c2565b60206040518083038186803b158015610b7557600080fd5b505afa158015610b89573d6000803e3d6000fd5b505050506040513d601f19601f82011682018060405250810190610bad91906125f2565b90506000811415610bc957818360020181905550505050610c88565b6000610be284600201548461179e90919063ffffffff16565b90506000610c25600754610c178760010154610c096004548761178890919063ffffffff16565b61178890919063ffffffff16565b6117b490919063ffffffff16565b9050610c71610c5e84610c506ec097ce7bc90715b34b9f10000000008561178890919063ffffffff16565b6117b490919063ffffffff16565b866003015461159590919063ffffffff16565b856003018190555043856002018190555050505050505b50565b600060058281548110610ca157610ca06124f2565b5b9060005260206000209060040201905060006006600084815260200190815260200160002060003373ffffffffffffffffffffffffffffffffffffffff1673ffffffffffffffffffffffffffffffffffffffff1681526020019081526020016000209050610d583382600001548460000160009054906101000a900473ffffffffffffffffffffffffffffffffffffffff1673ffffffffffffffffffffffffffffffffffffffff166118979092919063ffffffff16565b823373ffffffffffffffffffffffffffffffffffffffff167fbb757047c2b5f3974fe26b7c10f732e7bce710b0952a71082702781e62ae05958360000154604051610da39190611fd5565b60405180910390a36000816000018190555060008160010181905550505050565b60035481565b6000600580549050905060005b81811015610df957610de881610aaf565b80610df29061261f565b9050610dd7565b5050565b610e0a6000801b33610ecf565b610e1357600080fd5b8015610e2257610e21610dca565b5b610e6e82610e6060058681548110610e3d57610e3c6124f2565b5b90600052602060002090600402016001015460075461179e90919063ffffffff16565b61159590919063ffffffff16565b6007819055508160058481548110610e8957610e886124f2565b5b906000526020600020906004020160010181905550505050565b600260009054906101000a900473ffffffffffffffffffffffffffffffffffffffff1681565b60045481565b600080600084815260200190815260200160002060000160008373ffffffffffffffffffffffffffffffffffffffff1673ffffffffffffffffffffffffffffffffffffffff16815260200190815260200160002060009054906101000a900460ff16905092915050565b6006602052816000526040600020602052806000526040600020600091509150508060000154908060010154905082565b6000801b81565b6000806006600085815260200190815260200160002060008473ffffffffffffffffffffffffffffffffffffffff1673ffffffffffffffffffffffffffffffffffffffff1681526020019081526020016000209050806000015491505092915050565b6009544310611018576040517f08c379a000000000000000000000000000000000000000000000000000000000815260040161100f906126da565b60405180910390fd5b611067333083600260009054906101000a900473ffffffffffffffffffffffffffffffffffffffff1673ffffffffffffffffffffffffffffffffffffffff1661191d909392919063ffffffff16565b61107c600454826117b490919063ffffffff16565b6009600082825461108d91906126fa565b9250508190555050565b6110a08261074c565b6110a9816115ab565b6110b383836116a7565b505050565b6000600583815481106110ce576110cd6124f2565b5b9060005260206000209060040201905060006006600085815260200190815260200160002060003373ffffffffffffffffffffffffffffffffffffffff1673ffffffffffffffffffffffffffffffffffffffff168152602001908152602001600020905061113b84610aaf565b6000816000015411156111aa57600061119c826001015461118e6ec097ce7bc90715b34b9f10000000006111808760030154876000015461178890919063ffffffff16565b6117b490919063ffffffff16565b61179e90919063ffffffff16565b90506111a833826117ca565b505b6111fb3330858560000160009054906101000a900473ffffffffffffffffffffffffffffffffffffffff1673ffffffffffffffffffffffffffffffffffffffff1661191d909392919063ffffffff16565b61121283826000015461159590919063ffffffff16565b81600001819055506112566ec097ce7bc90715b34b9f10000000006112488460030154846000015461178890919063ffffffff16565b6117b490919063ffffffff16565b8160010181905550833373ffffffffffffffffffffffffffffffffffffffff167f90890809c654f11d6e72a28fa60149770a0d11ec6c92319d6ceb2bb0a4ea1a15856040516112a59190611fd5565b60405180910390a350505050565b600080600584815481106112ca576112c96124f2565b5b9060005260206000209060040201905060006006600086815260200190815260200160002060008573ffffffffffffffffffffffffffffffffffffffff1673ffffffffffffffffffffffffffffffffffffffff168152602001908152602001600020905060008260030154905060008360000160009054906101000a900473ffffffffffffffffffffffffffffffffffffffff1673ffffffffffffffffffffffffffffffffffffffff166370a08231306040518263ffffffff1660e01b815260040161139691906125c2565b60206040518083038186803b1580156113ae57600080fd5b505afa1580156113c2573d6000803e3d6000fd5b505050506040513d601f19601f820116820180604052508101906113e691906125f2565b9050600060095443106113fb576009546113fd565b435b90508460020154811180156114155750846002015443115b8015611422575060008214155b156114d057600061144086600201548361179e90919063ffffffff16565b9050600061148360075461147589600101546114676004548761178890919063ffffffff16565b61178890919063ffffffff16565b6117b490919063ffffffff16565b90506114cb6114bc856114ae6ec097ce7bc90715b34b9f10000000008561178890919063ffffffff16565b6117b490919063ffffffff16565b8661159590919063ffffffff16565b945050505b61151e84600101546115106ec097ce7bc90715b34b9f100000000061150287896000015461178890919063ffffffff16565b6117b490919063ffffffff16565b61179e90919063ffffffff16565b9550505050505092915050565b60007f01ffc9a7000000000000000000000000000000000000000000000000000000007bffffffffffffffffffffffffffffffffffffffffffffffffffffffff1916827bffffffffffffffffffffffffffffffffffffffffffffffffffffffff1916149050919050565b600081836115a391906126fa565b905092915050565b6115bc816115b761169f565b6119a6565b50565b6115c98282610ecf565b61169b57600160008084815260200190815260200160002060000160008373ffffffffffffffffffffffffffffffffffffffff1673ffffffffffffffffffffffffffffffffffffffff16815260200190815260200160002060006101000a81548160ff02191690831515021790555061164061169f565b73ffffffffffffffffffffffffffffffffffffffff168173ffffffffffffffffffffffffffffffffffffffff16837f2f8788117e7eff1d82e926ec794901d17c78024a50270940304540a733656f0d60405160405180910390a45b5050565b600033905090565b6116b18282610ecf565b1561178457600080600084815260200190815260200160002060000160008373ffffffffffffffffffffffffffffffffffffffff1673ffffffffffffffffffffffffffffffffffffffff16815260200190815260200160002060006101000a81548160ff02191690831515021790555061172961169f565b73ffffffffffffffffffffffffffffffffffffffff168173ffffffffffffffffffffffffffffffffffffffff16837ff6391f5c32d9c69d2a47ea670b442974b53935d1edc7fd64eb21e047a839171b60405160405180910390a45b5050565b600081836117969190612750565b905092915050565b600081836117ac91906124be565b905092915050565b600081836117c291906127d9565b905092915050565b600260009054906101000a900473ffffffffffffffffffffffffffffffffffffffff1673ffffffffffffffffffffffffffffffffffffffff1663a9059cbb83836040518363ffffffff1660e01b815260040161182792919061280a565b602060405180830381600087803b15801561184157600080fd5b505af1158015611855573d6000803e3d6000fd5b505050506040513d601f19601f820116820180604052508101906118799190612848565b50806003600082825461188c91906126fa565b925050819055505050565b6119188363a9059cbb60e01b84846040516024016118b692919061280a565b604051602081830303815290604052907bffffffffffffffffffffffffffffffffffffffffffffffffffffffff19166020820180517bffffffffffffffffffffffffffffffffffffffffffffffffffffffff8381831617835250505050611a43565b505050565b6119a0846323b872dd60e01b85858560405160240161193e93929190612875565b604051602081830303815290604052907bffffffffffffffffffffffffffffffffffffffffffffffffffffffff19166020820180517bffffffffffffffffffffffffffffffffffffffffffffffffffffffff8381831617835250505050611a43565b50505050565b6119b08282610ecf565b611a3f576119d58173ffffffffffffffffffffffffffffffffffffffff166014611b0a565b6119e38360001c6020611b0a565b6040516020016119f49291906129be565b6040516020818303038152906040526040517f08c379a0000000000000000000000000000000000000000000000000000000008152600401611a369190612a42565b60405180910390fd5b5050565b6000611aa5826040518060400160405280602081526020017f5361666545524332303a206c6f772d6c6576656c2063616c6c206661696c65648152508573ffffffffffffffffffffffffffffffffffffffff16611d469092919063ffffffff16565b9050600081511115611b055780806020019051810190611ac59190612848565b611b04576040517f08c379a0000000000000000000000000000000000000000000000000000000008152600401611afb90612ad6565b60405180910390fd5b5b505050565b606060006002836002611b1d9190612750565b611b2791906126fa565b67ffffffffffffffff811115611b4057611b3f612af6565b5b6040519080825280601f01601f191660200182016040528015611b725781602001600182028036833780820191505090505b5090507f300000000000000000000000000000000000000000000000000000000000000081600081518110611baa57611ba96124f2565b5b60200101907effffffffffffffffffffffffffffffffffffffffffffffffffffffffffffff1916908160001a9053507f780000000000000000000000000000000000000000000000000000000000000081600181518110611c0e57611c0d6124f2565b5b60200101907effffffffffffffffffffffffffffffffffffffffffffffffffffffffffffff1916908160001a90535060006001846002611c4e9190612750565b611c5891906126fa565b90505b6001811115611cf8577f3031323334353637383961626364656600000000000000000000000000000000600f861660108110611c9a57611c996124f2565b5b1a60f81b828281518110611cb157611cb06124f2565b5b60200101907effffffffffffffffffffffffffffffffffffffffffffffffffffffffffffff1916908160001a905350600485901c945080611cf190612b25565b9050611c5b565b5060008414611d3c576040517f08c379a0000000000000000000000000000000000000000000000000000000008152600401611d3390612b9b565b60405180910390fd5b8091505092915050565b6060611d558484600085611d5e565b90509392505050565b606082471015611da3576040517f08c379a0000000000000000000000000000000000000000000000000000000008152600401611d9a90612c2d565b60405180910390fd5b611dac85611e72565b611deb576040517f08c379a0000000000000000000000000000000000000000000000000000000008152600401611de290612c99565b60405180910390fd5b6000808673ffffffffffffffffffffffffffffffffffffffff168587604051611e149190612d00565b60006040518083038185875af1925050503d8060008114611e51576040519150601f19603f3d011682016040523d82523d6000602084013e611e56565b606091505b5091509150611e66828286611e95565b92505050949350505050565b6000808273ffffffffffffffffffffffffffffffffffffffff163b119050919050565b60608315611ea557829050611ef5565b600083511115611eb85782518084602001fd5b816040517f08c379a0000000000000000000000000000000000000000000000000000000008152600401611eec9190612a42565b60405180910390fd5b9392505050565b600080fd5b60007fffffffff0000000000000000000000000000000000000000000000000000000082169050919050565b611f3681611f01565b8114611f4157600080fd5b50565b600081359050611f5381611f2d565b92915050565b600060208284031215611f6f57611f6e611efc565b5b6000611f7d84828501611f44565b91505092915050565b60008115159050919050565b611f9b81611f86565b82525050565b6000602082019050611fb66000830184611f92565b92915050565b6000819050919050565b611fcf81611fbc565b82525050565b6000602082019050611fea6000830184611fc6565b92915050565b611ff981611fbc565b811461200457600080fd5b50565b60008135905061201681611ff0565b92915050565b60006020828403121561203257612031611efc565b5b600061204084828501612007565b91505092915050565b600073ffffffffffffffffffffffffffffffffffffffff82169050919050565b6000819050919050565b600061208e61208961208484612049565b612069565b612049565b9050919050565b60006120a082612073565b9050919050565b60006120b282612095565b9050919050565b6120c2816120a7565b82525050565b60006080820190506120dd60008301876120b9565b6120ea6020830186611fc6565b6120f76040830185611fc6565b6121046060830184611fc6565b95945050505050565b600061211882612049565b9050919050565b600061212a8261210d565b9050919050565b61213a8161211f565b811461214557600080fd5b50565b60008135905061215781612131565b92915050565b61216681611f86565b811461217157600080fd5b50565b6000813590506121838161215d565b92915050565b6000806000606084860312156121a2576121a1611efc565b5b60006121b086828701612007565b93505060206121c186828701612148565b92505060406121d286828701612174565b9150509250925092565b6000819050919050565b6121ef816121dc565b81146121fa57600080fd5b50565b60008135905061220c816121e6565b92915050565b60006020828403121561222857612227611efc565b5b6000612236848285016121fd565b91505092915050565b612248816121dc565b82525050565b6000602082019050612263600083018461223f565b92915050565b6122728161210d565b811461227d57600080fd5b50565b60008135905061228f81612269565b92915050565b600080604083850312156122ac576122ab611efc565b5b60006122ba858286016121fd565b92505060206122cb85828601612280565b9150509250929050565b600080604083850312156122ec576122eb611efc565b5b60006122fa85828601612007565b925050602061230b85828601612007565b9150509250929050565b60008060006060848603121561232e5761232d611efc565b5b600061233c86828701612007565b935050602061234d86828701612007565b925050604061235e86828701612174565b9150509250925092565b600060208201905061237d60008301846120b9565b92915050565b6000806040838503121561239a57612399611efc565b5b60006123a885828601612007565b92505060206123b985828601612280565b9150509250929050565b60006040820190506123d86000830185611fc6565b6123e56020830184611fc6565b9392505050565b600082825260208201905092915050565b7f416363657373436f6e74726f6c3a2063616e206f6e6c792072656e6f756e636560008201527f20726f6c657320666f722073656c660000000000000000000000000000000000602082015250565b6000612459602f836123ec565b9150612464826123fd565b604082019050919050565b600060208201905081810360008301526124888161244c565b9050919050565b7f4e487b7100000000000000000000000000000000000000000000000000000000600052601160045260246000fd5b60006124c982611fbc565b91506124d483611fbc565b9250828210156124e7576124e661248f565b5b828203905092915050565b7f4e487b7100000000000000000000000000000000000000000000000000000000600052603260045260246000fd5b7f77697468647261773a2063616e2774207769746864726177206d6f726520746860008201527f616e206465706f73697400000000000000000000000000000000000000000000602082015250565b600061257d602a836123ec565b915061258882612521565b604082019050919050565b600060208201905081810360008301526125ac81612570565b9050919050565b6125bc8161210d565b82525050565b60006020820190506125d760008301846125b3565b92915050565b6000815190506125ec81611ff0565b92915050565b60006020828403121561260857612607611efc565b5b6000612616848285016125dd565b91505092915050565b600061262a82611fbc565b91507fffffffffffffffffffffffffffffffffffffffffffffffffffffffffffffffff82141561265d5761265c61248f565b5b600182019050919050565b7f66756e643a20746f6f206c6174652c20746865206661726d20697320636c6f7360008201527f6564000000000000000000000000000000000000000000000000000000000000602082015250565b60006126c46022836123ec565b91506126cf82612668565b604082019050919050565b600060208201905081810360008301526126f3816126b7565b9050919050565b600061270582611fbc565b915061271083611fbc565b9250827fffffffffffffffffffffffffffffffffffffffffffffffffffffffffffffffff038211156127455761274461248f565b5b828201905092915050565b600061275b82611fbc565b915061276683611fbc565b9250817fffffffffffffffffffffffffffffffffffffffffffffffffffffffffffffffff048311821515161561279f5761279e61248f565b5b828202905092915050565b7f4e487b7100000000000000000000000000000000000000000000000000000000600052601260045260246000fd5b60006127e482611fbc565b91506127ef83611fbc565b9250826127ff576127fe6127aa565b5b828204905092915050565b600060408201905061281f60008301856125b3565b61282c6020830184611fc6565b9392505050565b6000815190506128428161215d565b92915050565b60006020828403121561285e5761285d611efc565b5b600061286c84828501612833565b91505092915050565b600060608201905061288a60008301866125b3565b61289760208301856125b3565b6128a46040830184611fc6565b949350505050565b600081905092915050565b7f416363657373436f6e74726f6c3a206163636f756e7420000000000000000000600082015250565b60006128ed6017836128ac565b91506128f8826128b7565b601782019050919050565b600081519050919050565b60005b8381101561292c578082015181840152602081019050612911565b8381111561293b576000848401525b50505050565b600061294c82612903565b61295681856128ac565b935061296681856020860161290e565b80840191505092915050565b7f206973206d697373696e6720726f6c6520000000000000000000000000000000600082015250565b60006129a86011836128ac565b91506129b382612972565b601182019050919050565b60006129c9826128e0565b91506129d58285612941565b91506129e08261299b565b91506129ec8284612941565b91508190509392505050565b6000601f19601f8301169050919050565b6000612a1482612903565b612a1e81856123ec565b9350612a2e81856020860161290e565b612a37816129f8565b840191505092915050565b60006020820190508181036000830152612a5c8184612a09565b905092915050565b7f5361666545524332303a204552433230206f7065726174696f6e20646964206e60008201527f6f74207375636365656400000000000000000000000000000000000000000000602082015250565b6000612ac0602a836123ec565b9150612acb82612a64565b604082019050919050565b60006020820190508181036000830152612aef81612ab3565b9050919050565b7f4e487b7100000000000000000000000000000000000000000000000000000000600052604160045260246000fd5b6000612b3082611fbc565b91506000821415612b4457612b4361248f565b5b600182039050919050565b7f537472696e67733a20686578206c656e67746820696e73756666696369656e74600082015250565b6000612b856020836123ec565b9150612b9082612b4f565b602082019050919050565b60006020820190508181036000830152612bb481612b78565b9050919050565b7f416464726573733a20696e73756666696369656e742062616c616e636520666f60008201527f722063616c6c0000000000000000000000000000000000000000000000000000602082015250565b6000612c176026836123ec565b9150612c2282612bbb565b604082019050919050565b60006020820190508181036000830152612c4681612c0a565b9050919050565b7f416464726573733a2063616c6c20746f206e6f6e2d636f6e7472616374000000600082015250565b6000612c83601d836123ec565b9150612c8e82612c4d565b602082019050919050565b60006020820190508181036000830152612cb281612c76565b9050919050565b600081519050919050565b600081905092915050565b6000612cda82612cb9565b612ce48185612cc4565b9350612cf481856020860161290e565b80840191505092915050565b6000612d0c8284612ccf565b91508190509291505056fea2646970667358221220253dc3d2eaebc98abe817d1335f2cab3a41862168dab60e339e00f5815855c5964736f6c63430008090033",
  "linkReferences": {},
  "deployedLinkReferences": {}
}