{
  "_format": "hh-sol-artifact-1",
  "contractName": "StrategyVault",
  "sourceName": "contracts/vault/VaultStrategy.sol",
  "abi": [
    {
      "inputs": [
        {
          "internalType": "string",
          "name": "_vName",
          "type": "string"
        },
        {
          "internalType": "string",
          "name": "_vSymbol",
          "type": "string"
        },
        {
          "internalType": "address",
          "name": "_token",
          "type": "address"
        },
        {
          "internalType": "address",
          "name": "_controller",
          "type": "address"
        }
      ],
      "stateMutability": "nonpayable",
      "type": "constructor"
    },
    {
      "anonymous": false,
      "inputs": [
        {
          "indexed": true,
          "internalType": "address",
          "name": "owner",
          "type": "address"
        },
        {
          "indexed": true,
          "internalType": "address",
          "name": "spender",
          "type": "address"
        },
        {
          "indexed": false,
          "internalType": "uint256",
          "name": "value",
          "type": "uint256"
        }
      ],
      "name": "Approval",
      "type": "event"
    },
    {
      "anonymous": false,
      "inputs": [
        {
          "indexed": true,
          "internalType": "address",
          "name": "from",
          "type": "address"
        },
        {
          "indexed": true,
          "internalType": "address",
          "name": "to",
          "type": "address"
        },
        {
          "indexed": false,
          "internalType": "uint256",
          "name": "value",
          "type": "uint256"
        }
      ],
      "name": "Transfer",
      "type": "event"
    },
    {
      "inputs": [],
      "name": "MAX",
      "outputs": [
        {
          "internalType": "uint256",
          "name": "",
          "type": "uint256"
        }
      ],
      "stateMutability": "view",
      "type": "function"
    },
    {
      "inputs": [
        {
          "internalType": "address",
          "name": "owner",
          "type": "address"
        },
        {
          "internalType": "address",
          "name": "spender",
          "type": "address"
        }
      ],
      "name": "allowance",
      "outputs": [
        {
          "internalType": "uint256",
          "name": "",
          "type": "uint256"
        }
      ],
      "stateMutability": "view",
      "type": "function"
    },
    {
      "inputs": [
        {
          "internalType": "address",
          "name": "spender",
          "type": "address"
        },
        {
          "internalType": "uint256",
          "name": "amount",
          "type": "uint256"
        }
      ],
      "name": "approve",
      "outputs": [
        {
          "internalType": "bool",
          "name": "",
          "type": "bool"
        }
      ],
      "stateMutability": "nonpayable",
      "type": "function"
    },
    {
      "inputs": [],
      "name": "available",
      "outputs": [
        {
          "internalType": "uint256",
          "name": "",
          "type": "uint256"
        }
      ],
      "stateMutability": "view",
      "type": "function"
    },
    {
      "inputs": [],
      "name": "balance",
      "outputs": [
        {
          "internalType": "uint256",
          "name": "",
          "type": "uint256"
        }
      ],
      "stateMutability": "view",
      "type": "function"
    },
    {
      "inputs": [
        {
          "internalType": "address",
          "name": "account",
          "type": "address"
        }
      ],
      "name": "balanceOf",
      "outputs": [
        {
          "internalType": "uint256",
          "name": "",
          "type": "uint256"
        }
      ],
      "stateMutability": "view",
      "type": "function"
    },
    {
      "inputs": [],
      "name": "controller",
      "outputs": [
        {
          "internalType": "address",
          "name": "",
          "type": "address"
        }
      ],
      "stateMutability": "view",
      "type": "function"
    },
    {
      "inputs": [],
      "name": "decimals",
      "outputs": [
        {
          "internalType": "uint8",
          "name": "",
          "type": "uint8"
        }
      ],
      "stateMutability": "view",
      "type": "function"
    },
    {
      "inputs": [
        {
          "internalType": "address",
          "name": "spender",
          "type": "address"
        },
        {
          "internalType": "uint256",
          "name": "subtractedValue",
          "type": "uint256"
        }
      ],
      "name": "decreaseAllowance",
      "outputs": [
        {
          "internalType": "bool",
          "name": "",
          "type": "bool"
        }
      ],
      "stateMutability": "nonpayable",
      "type": "function"
    },
    {
      "inputs": [
        {
          "internalType": "uint256",
          "name": "_amount",
          "type": "uint256"
        }
      ],
      "name": "deposit",
      "outputs": [],
      "stateMutability": "nonpayable",
      "type": "function"
    },
    {
      "inputs": [],
      "name": "depositAll",
      "outputs": [],
      "stateMutability": "nonpayable",
      "type": "function"
    },
    {
      "inputs": [],
      "name": "earn",
      "outputs": [],
      "stateMutability": "nonpayable",
      "type": "function"
    },
    {
      "inputs": [],
      "name": "getPricePerFullShare",
      "outputs": [
        {
          "internalType": "uint256",
          "name": "",
          "type": "uint256"
        }
      ],
      "stateMutability": "view",
      "type": "function"
    },
    {
      "inputs": [],
      "name": "governance",
      "outputs": [
        {
          "internalType": "address",
          "name": "",
          "type": "address"
        }
      ],
      "stateMutability": "view",
      "type": "function"
    },
    {
      "inputs": [
        {
          "internalType": "address",
          "name": "reserve",
          "type": "address"
        },
        {
          "internalType": "uint256",
          "name": "amount",
          "type": "uint256"
        }
      ],
      "name": "harvest",
      "outputs": [],
      "stateMutability": "nonpayable",
      "type": "function"
    },
    {
      "inputs": [
        {
          "internalType": "address",
          "name": "spender",
          "type": "address"
        },
        {
          "internalType": "uint256",
          "name": "addedValue",
          "type": "uint256"
        }
      ],
      "name": "increaseAllowance",
      "outputs": [
        {
          "internalType": "bool",
          "name": "",
          "type": "bool"
        }
      ],
      "stateMutability": "nonpayable",
      "type": "function"
    },
    {
      "inputs": [],
      "name": "min",
      "outputs": [
        {
          "internalType": "uint256",
          "name": "",
          "type": "uint256"
        }
      ],
      "stateMutability": "view",
      "type": "function"
    },
    {
      "inputs": [],
      "name": "name",
      "outputs": [
        {
          "internalType": "string",
          "name": "",
          "type": "string"
        }
      ],
      "stateMutability": "view",
      "type": "function"
    },
    {
      "inputs": [
        {
          "internalType": "address",
          "name": "_controller",
          "type": "address"
        }
      ],
      "name": "setController",
      "outputs": [],
      "stateMutability": "nonpayable",
      "type": "function"
    },
    {
      "inputs": [
        {
          "internalType": "address",
          "name": "_governance",
          "type": "address"
        }
      ],
      "name": "setGovernance",
      "outputs": [],
      "stateMutability": "nonpayable",
      "type": "function"
    },
    {
      "inputs": [
        {
          "internalType": "uint256",
          "name": "_min",
          "type": "uint256"
        }
      ],
      "name": "setMin",
      "outputs": [],
      "stateMutability": "nonpayable",
      "type": "function"
    },
    {
      "inputs": [],
      "name": "symbol",
      "outputs": [
        {
          "internalType": "string",
          "name": "",
          "type": "string"
        }
      ],
      "stateMutability": "view",
      "type": "function"
    },
    {
      "inputs": [],
      "name": "token",
      "outputs": [
        {
          "internalType": "contract IERC20",
          "name": "",
          "type": "address"
        }
      ],
      "stateMutability": "view",
      "type": "function"
    },
    {
      "inputs": [],
      "name": "totalSupply",
      "outputs": [
        {
          "internalType": "uint256",
          "name": "",
          "type": "uint256"
        }
      ],
      "stateMutability": "view",
      "type": "function"
    },
    {
      "inputs": [
        {
          "internalType": "address",
          "name": "to",
          "type": "address"
        },
        {
          "internalType": "uint256",
          "name": "amount",
          "type": "uint256"
        }
      ],
      "name": "transfer",
      "outputs": [
        {
          "internalType": "bool",
          "name": "",
          "type": "bool"
        }
      ],
      "stateMutability": "nonpayable",
      "type": "function"
    },
    {
      "inputs": [
        {
          "internalType": "address",
          "name": "from",
          "type": "address"
        },
        {
          "internalType": "address",
          "name": "to",
          "type": "address"
        },
        {
          "internalType": "uint256",
          "name": "amount",
          "type": "uint256"
        }
      ],
      "name": "transferFrom",
      "outputs": [
        {
          "internalType": "bool",
          "name": "",
          "type": "bool"
        }
      ],
      "stateMutability": "nonpayable",
      "type": "function"
    },
    {
      "inputs": [
        {
          "internalType": "uint256",
          "name": "_shares",
          "type": "uint256"
        }
      ],
      "name": "withdraw",
      "outputs": [],
      "stateMutability": "nonpayable",
      "type": "function"
    },
    {
      "inputs": [],
      "name": "withdrawAll",
      "outputs": [],
      "stateMutability": "nonpayable",
      "type": "function"
    }
  ],
  "bytecode": "0x608060405261251c6006553480156200001757600080fd5b50604051620038f5380380620038f583398181016040528101906200003d919062000544565b838273ffffffffffffffffffffffffffffffffffffffff166306fdde036040518163ffffffff1660e01b815260040160006040518083038186803b1580156200008557600080fd5b505afa1580156200009a573d6000803e3d6000fd5b505050506040513d6000823e3d601f19601f82011682018060405250810190620000c59190620005f4565b604051602001620000d892919062000692565b604051602081830303815290604052838373ffffffffffffffffffffffffffffffffffffffff166395d89b416040518163ffffffff1660e01b815260040160006040518083038186803b1580156200012f57600080fd5b505afa15801562000144573d6000803e3d6000fd5b505050506040513d6000823e3d601f19601f820116820180604052508101906200016f9190620005f4565b6040516020016200018292919062000692565b6040516020818303038152906040528160039080519060200190620001a992919062000292565b508060049080519060200190620001c292919062000292565b50505081600560006101000a81548173ffffffffffffffffffffffffffffffffffffffff021916908373ffffffffffffffffffffffffffffffffffffffff16021790555033600760006101000a81548173ffffffffffffffffffffffffffffffffffffffff021916908373ffffffffffffffffffffffffffffffffffffffff16021790555080600860006101000a81548173ffffffffffffffffffffffffffffffffffffffff021916908373ffffffffffffffffffffffffffffffffffffffff160217905550505050506200071f565b828054620002a090620006e9565b90600052602060002090601f016020900481019282620002c4576000855562000310565b82601f10620002df57805160ff191683800117855562000310565b8280016001018555821562000310579182015b828111156200030f578251825591602001919060010190620002f2565b5b5090506200031f919062000323565b5090565b5b808211156200033e57600081600090555060010162000324565b5090565b6000604051905090565b600080fd5b600080fd5b600080fd5b600080fd5b6000601f19601f8301169050919050565b7f4e487b7100000000000000000000000000000000000000000000000000000000600052604160045260246000fd5b620003ab8262000360565b810181811067ffffffffffffffff82111715620003cd57620003cc62000371565b5b80604052505050565b6000620003e262000342565b9050620003f08282620003a0565b919050565b600067ffffffffffffffff82111562000413576200041262000371565b5b6200041e8262000360565b9050602081019050919050565b60005b838110156200044b5780820151818401526020810190506200042e565b838111156200045b576000848401525b50505050565b6000620004786200047284620003f5565b620003d6565b9050828152602081018484840111156200049757620004966200035b565b5b620004a48482856200042b565b509392505050565b600082601f830112620004c457620004c362000356565b5b8151620004d684826020860162000461565b91505092915050565b600073ffffffffffffffffffffffffffffffffffffffff82169050919050565b60006200050c82620004df565b9050919050565b6200051e81620004ff565b81146200052a57600080fd5b50565b6000815190506200053e8162000513565b92915050565b600080600080608085870312156200056157620005606200034c565b5b600085015167ffffffffffffffff81111562000582576200058162000351565b5b6200059087828801620004ac565b945050602085015167ffffffffffffffff811115620005b457620005b362000351565b5b620005c287828801620004ac565b9350506040620005d5878288016200052d565b9250506060620005e8878288016200052d565b91505092959194509250565b6000602082840312156200060d576200060c6200034c565b5b600082015167ffffffffffffffff8111156200062e576200062d62000351565b5b6200063c84828501620004ac565b91505092915050565b600081519050919050565b600081905092915050565b6000620006688262000645565b62000674818562000650565b9350620006868185602086016200042b565b80840191505092915050565b6000620006a082856200065b565b9150620006ae82846200065b565b91508190509392505050565b7f4e487b7100000000000000000000000000000000000000000000000000000000600052602260045260246000fd5b600060028204905060018216806200070257607f821691505b60208210811415620007195762000718620006ba565b5b50919050565b6131c6806200072f6000396000f3fe608060405234801561001057600080fd5b50600436106101c45760003560e01c806392eefe9b116100f9578063d389800f11610097578063de5f626811610071578063de5f6268146104e3578063f77c4791146104ed578063f88979451461050b578063fc0c546a14610529576101c4565b8063d389800f1461048b578063d49d518114610495578063dd62ed3e146104b3576101c4565b8063a9059cbb116100d3578063a9059cbb14610405578063ab033ea914610435578063b69ef8a814610451578063b6b55f251461046f576101c4565b806392eefe9b1461039b57806395d89b41146103b7578063a457c2d7146103d5576101c4565b806339509351116101665780635aa6e675116101405780635aa6e6751461032557806370a082311461034357806377c7b8fc14610373578063853828b614610391576101c4565b806339509351146102bb57806345dc3dd8146102eb57806348a0d75414610307576101c4565b806318160ddd116101a257806318160ddd1461023357806323b872dd146102515780632e1a7d4d14610281578063313ce5671461029d576101c4565b8063018ee9b7146101c957806306fdde03146101e5578063095ea7b314610203575b600080fd5b6101e360048036038101906101de9190612304565b610547565b005b6101ed6106b9565b6040516101fa91906123dd565b60405180910390f35b61021d60048036038101906102189190612304565b61074b565b60405161022a919061241a565b60405180910390f35b61023b61076e565b6040516102489190612444565b60405180910390f35b61026b6004803603810190610266919061245f565b610778565b604051610278919061241a565b60405180910390f35b61029b600480360381019061029691906124b2565b6107a7565b005b6102a5610aa1565b6040516102b291906124fb565b60405180910390f35b6102d560048036038101906102d09190612304565b610aaa565b6040516102e2919061241a565b60405180910390f35b610305600480360381019061030091906124b2565b610ae1565b005b61030f610b7b565b60405161031c9190612444565b60405180910390f35b61032d610c55565b60405161033a9190612525565b60405180910390f35b61035d60048036038101906103589190612540565b610c7b565b60405161036a9190612444565b60405180910390f35b61037b610cc3565b6040516103889190612444565b60405180910390f35b610399610d05565b005b6103b560048036038101906103b09190612540565b610d18565b005b6103bf610dec565b6040516103cc91906123dd565b60405180910390f35b6103ef60048036038101906103ea9190612304565b610e7e565b6040516103fc919061241a565b60405180910390f35b61041f600480360381019061041a9190612304565b610ef5565b60405161042c919061241a565b60405180910390f35b61044f600480360381019061044a9190612540565b610f18565b005b610459610fec565b6040516104669190612444565b60405180910390f35b610489600480360381019061048491906124b2565b61117c565b005b6104936113a3565b005b61049d6114d2565b6040516104aa9190612444565b60405180910390f35b6104cd60048036038101906104c8919061256d565b6114d8565b6040516104da9190612444565b60405180910390f35b6104eb61155f565b005b6104f5611614565b6040516105029190612525565b60405180910390f35b61051361163a565b6040516105209190612444565b60405180910390f35b610531611640565b60405161053e919061260c565b60405180910390f35b600860009054906101000a900473ffffffffffffffffffffffffffffffffffffffff1673ffffffffffffffffffffffffffffffffffffffff163373ffffffffffffffffffffffffffffffffffffffff16146105d7576040517f08c379a00000000000000000000000000000000000000000000000000000000081526004016105ce90612673565b60405180910390fd5b600560009054906101000a900473ffffffffffffffffffffffffffffffffffffffff1673ffffffffffffffffffffffffffffffffffffffff168273ffffffffffffffffffffffffffffffffffffffff161415610668576040517f08c379a000000000000000000000000000000000000000000000000000000000815260040161065f906126df565b60405180910390fd5b6106b5600860009054906101000a900473ffffffffffffffffffffffffffffffffffffffff16828473ffffffffffffffffffffffffffffffffffffffff166116669092919063ffffffff16565b5050565b6060600380546106c89061272e565b80601f01602080910402602001604051908101604052809291908181526020018280546106f49061272e565b80156107415780601f1061071657610100808354040283529160200191610741565b820191906000526020600020905b81548152906001019060200180831161072457829003601f168201915b5050505050905090565b6000806107566116ec565b90506107638185856116f4565b600191505092915050565b6000600254905090565b6000806107836116ec565b90506107908582856118bf565b61079b85858561194b565b60019150509392505050565b60006107dc6107b461076e565b6107ce846107c0610fec565b611bcc90919063ffffffff16565b611be290919063ffffffff16565b90506107e83383611bf8565b6000600560009054906101000a900473ffffffffffffffffffffffffffffffffffffffff1673ffffffffffffffffffffffffffffffffffffffff166370a08231306040518263ffffffff1660e01b81526004016108459190612525565b60206040518083038186803b15801561085d57600080fd5b505afa158015610871573d6000803e3d6000fd5b505050506040513d601f19601f820116820180604052508101906108959190612775565b905081811015610a4f5760006108b48284611dcf90919063ffffffff16565b9050600860009054906101000a900473ffffffffffffffffffffffffffffffffffffffff1673ffffffffffffffffffffffffffffffffffffffff1663f3fef3a3600560009054906101000a900473ffffffffffffffffffffffffffffffffffffffff16836040518363ffffffff1660e01b81526004016109359291906127a2565b600060405180830381600087803b15801561094f57600080fd5b505af1158015610963573d6000803e3d6000fd5b505050506000600560009054906101000a900473ffffffffffffffffffffffffffffffffffffffff1673ffffffffffffffffffffffffffffffffffffffff166370a08231306040518263ffffffff1660e01b81526004016109c49190612525565b60206040518083038186803b1580156109dc57600080fd5b505afa1580156109f0573d6000803e3d6000fd5b505050506040513d601f19601f82011682018060405250810190610a149190612775565b90506000610a2b8483611dcf90919063ffffffff16565b905082811015610a4b57610a488185611de590919063ffffffff16565b94505b5050505b610a9c3383600560009054906101000a900473ffffffffffffffffffffffffffffffffffffffff1673ffffffffffffffffffffffffffffffffffffffff166116669092919063ffffffff16565b505050565b60006012905090565b600080610ab56116ec565b9050610ad6818585610ac785896114d8565b610ad191906127fa565b6116f4565b600191505092915050565b600760009054906101000a900473ffffffffffffffffffffffffffffffffffffffff1673ffffffffffffffffffffffffffffffffffffffff163373ffffffffffffffffffffffffffffffffffffffff1614610b71576040517f08c379a0000000000000000000000000000000000000000000000000000000008152600401610b689061289c565b60405180910390fd5b8060068190555050565b6000610c50612710610c42600654600560009054906101000a900473ffffffffffffffffffffffffffffffffffffffff1673ffffffffffffffffffffffffffffffffffffffff166370a08231306040518263ffffffff1660e01b8152600401610be49190612525565b60206040518083038186803b158015610bfc57600080fd5b505afa158015610c10573d6000803e3d6000fd5b505050506040513d601f19601f82011682018060405250810190610c349190612775565b611bcc90919063ffffffff16565b611be290919063ffffffff16565b905090565b600760009054906101000a900473ffffffffffffffffffffffffffffffffffffffff1681565b60008060008373ffffffffffffffffffffffffffffffffffffffff1673ffffffffffffffffffffffffffffffffffffffff168152602001908152602001600020549050919050565b6000610d00610cd061076e565b610cf2670de0b6b3a7640000610ce4610fec565b611bcc90919063ffffffff16565b611be290919063ffffffff16565b905090565b610d16610d1133610c7b565b6107a7565b565b600760009054906101000a900473ffffffffffffffffffffffffffffffffffffffff1673ffffffffffffffffffffffffffffffffffffffff163373ffffffffffffffffffffffffffffffffffffffff1614610da8576040517f08c379a0000000000000000000000000000000000000000000000000000000008152600401610d9f9061289c565b60405180910390fd5b80600860006101000a81548173ffffffffffffffffffffffffffffffffffffffff021916908373ffffffffffffffffffffffffffffffffffffffff16021790555050565b606060048054610dfb9061272e565b80601f0160208091040260200160405190810160405280929190818152602001828054610e279061272e565b8015610e745780601f10610e4957610100808354040283529160200191610e74565b820191906000526020600020905b815481529060010190602001808311610e5757829003601f168201915b5050505050905090565b600080610e896116ec565b90506000610e9782866114d8565b905083811015610edc576040517f08c379a0000000000000000000000000000000000000000000000000000000008152600401610ed39061292e565b60405180910390fd5b610ee982868684036116f4565b60019250505092915050565b600080610f006116ec565b9050610f0d81858561194b565b600191505092915050565b600760009054906101000a900473ffffffffffffffffffffffffffffffffffffffff1673ffffffffffffffffffffffffffffffffffffffff163373ffffffffffffffffffffffffffffffffffffffff1614610fa8576040517f08c379a0000000000000000000000000000000000000000000000000000000008152600401610f9f9061289c565b60405180910390fd5b80600760006101000a81548173ffffffffffffffffffffffffffffffffffffffff021916908373ffffffffffffffffffffffffffffffffffffffff16021790555050565b6000611177600860009054906101000a900473ffffffffffffffffffffffffffffffffffffffff1673ffffffffffffffffffffffffffffffffffffffff166370a08231600560009054906101000a900473ffffffffffffffffffffffffffffffffffffffff166040518263ffffffff1660e01b815260040161106e9190612525565b60206040518083038186803b15801561108657600080fd5b505afa15801561109a573d6000803e3d6000fd5b505050506040513d601f19601f820116820180604052508101906110be9190612775565b600560009054906101000a900473ffffffffffffffffffffffffffffffffffffffff1673ffffffffffffffffffffffffffffffffffffffff166370a08231306040518263ffffffff1660e01b81526004016111199190612525565b60206040518083038186803b15801561113157600080fd5b505afa158015611145573d6000803e3d6000fd5b505050506040513d601f19601f820116820180604052508101906111699190612775565b611de590919063ffffffff16565b905090565b6000611186610fec565b90506000600560009054906101000a900473ffffffffffffffffffffffffffffffffffffffff1673ffffffffffffffffffffffffffffffffffffffff166370a08231306040518263ffffffff1660e01b81526004016111e59190612525565b60206040518083038186803b1580156111fd57600080fd5b505afa158015611211573d6000803e3d6000fd5b505050506040513d601f19601f820116820180604052508101906112359190612775565b9050611286333085600560009054906101000a900473ffffffffffffffffffffffffffffffffffffffff1673ffffffffffffffffffffffffffffffffffffffff16611dfb909392919063ffffffff16565b6000600560009054906101000a900473ffffffffffffffffffffffffffffffffffffffff1673ffffffffffffffffffffffffffffffffffffffff166370a08231306040518263ffffffff1660e01b81526004016112e39190612525565b60206040518083038186803b1580156112fb57600080fd5b505afa15801561130f573d6000803e3d6000fd5b505050506040513d601f19601f820116820180604052508101906113339190612775565b90506113488282611dcf90919063ffffffff16565b935060008061135561076e565b141561136357849050611392565b61138f8461138161137261076e565b88611bcc90919063ffffffff16565b611be290919063ffffffff16565b90505b61139c3382611e84565b5050505050565b60006113ad610b7b565b905061141e600860009054906101000a900473ffffffffffffffffffffffffffffffffffffffff1682600560009054906101000a900473ffffffffffffffffffffffffffffffffffffffff1673ffffffffffffffffffffffffffffffffffffffff166116669092919063ffffffff16565b600860009054906101000a900473ffffffffffffffffffffffffffffffffffffffff1673ffffffffffffffffffffffffffffffffffffffff1663b02bf4b9600560009054906101000a900473ffffffffffffffffffffffffffffffffffffffff16836040518363ffffffff1660e01b815260040161149d9291906127a2565b600060405180830381600087803b1580156114b757600080fd5b505af11580156114cb573d6000803e3d6000fd5b5050505050565b61271081565b6000600160008473ffffffffffffffffffffffffffffffffffffffff1673ffffffffffffffffffffffffffffffffffffffff16815260200190815260200160002060008373ffffffffffffffffffffffffffffffffffffffff1673ffffffffffffffffffffffffffffffffffffffff16815260200190815260200160002054905092915050565b611612600560009054906101000a900473ffffffffffffffffffffffffffffffffffffffff1673ffffffffffffffffffffffffffffffffffffffff166370a08231336040518263ffffffff1660e01b81526004016115bd9190612525565b60206040518083038186803b1580156115d557600080fd5b505afa1580156115e9573d6000803e3d6000fd5b505050506040513d601f19601f8201168201806040525081019061160d9190612775565b61117c565b565b600860009054906101000a900473ffffffffffffffffffffffffffffffffffffffff1681565b60065481565b600560009054906101000a900473ffffffffffffffffffffffffffffffffffffffff1681565b6116e78363a9059cbb60e01b84846040516024016116859291906127a2565b604051602081830303815290604052907bffffffffffffffffffffffffffffffffffffffffffffffffffffffff19166020820180517bffffffffffffffffffffffffffffffffffffffffffffffffffffffff8381831617835250505050611fe4565b505050565b600033905090565b600073ffffffffffffffffffffffffffffffffffffffff168373ffffffffffffffffffffffffffffffffffffffff161415611764576040517f08c379a000000000000000000000000000000000000000000000000000000000815260040161175b906129c0565b60405180910390fd5b600073ffffffffffffffffffffffffffffffffffffffff168273ffffffffffffffffffffffffffffffffffffffff1614156117d4576040517f08c379a00000000000000000000000000000000000000000000000000000000081526004016117cb90612a52565b60405180910390fd5b80600160008573ffffffffffffffffffffffffffffffffffffffff1673ffffffffffffffffffffffffffffffffffffffff16815260200190815260200160002060008473ffffffffffffffffffffffffffffffffffffffff1673ffffffffffffffffffffffffffffffffffffffff168152602001908152602001600020819055508173ffffffffffffffffffffffffffffffffffffffff168373ffffffffffffffffffffffffffffffffffffffff167f8c5be1e5ebec7d5bd14f71427d1e84f3dd0314c0f7b2291e5b200ac8c7c3b925836040516118b29190612444565b60405180910390a3505050565b60006118cb84846114d8565b90507fffffffffffffffffffffffffffffffffffffffffffffffffffffffffffffffff81146119455781811015611937576040517f08c379a000000000000000000000000000000000000000000000000000000000815260040161192e90612abe565b60405180910390fd5b61194484848484036116f4565b5b50505050565b600073ffffffffffffffffffffffffffffffffffffffff168373ffffffffffffffffffffffffffffffffffffffff1614156119bb576040517f08c379a00000000000000000000000000000000000000000000000000000000081526004016119b290612b50565b60405180910390fd5b600073ffffffffffffffffffffffffffffffffffffffff168273ffffffffffffffffffffffffffffffffffffffff161415611a2b576040517f08c379a0000000000000000000000000000000000000000000000000000000008152600401611a2290612be2565b60405180910390fd5b611a368383836120ab565b60008060008573ffffffffffffffffffffffffffffffffffffffff1673ffffffffffffffffffffffffffffffffffffffff16815260200190815260200160002054905081811015611abc576040517f08c379a0000000000000000000000000000000000000000000000000000000008152600401611ab390612c74565b60405180910390fd5b8181036000808673ffffffffffffffffffffffffffffffffffffffff1673ffffffffffffffffffffffffffffffffffffffff16815260200190815260200160002081905550816000808573ffffffffffffffffffffffffffffffffffffffff1673ffffffffffffffffffffffffffffffffffffffff1681526020019081526020016000206000828254611b4f91906127fa565b925050819055508273ffffffffffffffffffffffffffffffffffffffff168473ffffffffffffffffffffffffffffffffffffffff167fddf252ad1be2c89b69c2b068fc378daa952ba7f163c4a11628f55a4df523b3ef84604051611bb39190612444565b60405180910390a3611bc68484846120b0565b50505050565b60008183611bda9190612c94565b905092915050565b60008183611bf09190612d1d565b905092915050565b600073ffffffffffffffffffffffffffffffffffffffff168273ffffffffffffffffffffffffffffffffffffffff161415611c68576040517f08c379a0000000000000000000000000000000000000000000000000000000008152600401611c5f90612dc0565b60405180910390fd5b611c74826000836120ab565b60008060008473ffffffffffffffffffffffffffffffffffffffff1673ffffffffffffffffffffffffffffffffffffffff16815260200190815260200160002054905081811015611cfa576040517f08c379a0000000000000000000000000000000000000000000000000000000008152600401611cf190612e52565b60405180910390fd5b8181036000808573ffffffffffffffffffffffffffffffffffffffff1673ffffffffffffffffffffffffffffffffffffffff168152602001908152602001600020819055508160026000828254611d519190612e72565b92505081905550600073ffffffffffffffffffffffffffffffffffffffff168373ffffffffffffffffffffffffffffffffffffffff167fddf252ad1be2c89b69c2b068fc378daa952ba7f163c4a11628f55a4df523b3ef84604051611db69190612444565b60405180910390a3611dca836000846120b0565b505050565b60008183611ddd9190612e72565b905092915050565b60008183611df391906127fa565b905092915050565b611e7e846323b872dd60e01b858585604051602401611e1c93929190612ea6565b604051602081830303815290604052907bffffffffffffffffffffffffffffffffffffffffffffffffffffffff19166020820180517bffffffffffffffffffffffffffffffffffffffffffffffffffffffff8381831617835250505050611fe4565b50505050565b600073ffffffffffffffffffffffffffffffffffffffff168273ffffffffffffffffffffffffffffffffffffffff161415611ef4576040517f08c379a0000000000000000000000000000000000000000000000000000000008152600401611eeb90612f29565b60405180910390fd5b611f00600083836120ab565b8060026000828254611f1291906127fa565b92505081905550806000808473ffffffffffffffffffffffffffffffffffffffff1673ffffffffffffffffffffffffffffffffffffffff1681526020019081526020016000206000828254611f6791906127fa565b925050819055508173ffffffffffffffffffffffffffffffffffffffff16600073ffffffffffffffffffffffffffffffffffffffff167fddf252ad1be2c89b69c2b068fc378daa952ba7f163c4a11628f55a4df523b3ef83604051611fcc9190612444565b60405180910390a3611fe0600083836120b0565b5050565b6000612046826040518060400160405280602081526020017f5361666545524332303a206c6f772d6c6576656c2063616c6c206661696c65648152508573ffffffffffffffffffffffffffffffffffffffff166120b59092919063ffffffff16565b90506000815111156120a657808060200190518101906120669190612f75565b6120a5576040517f08c379a000000000000000000000000000000000000000000000000000000000815260040161209c90613014565b60405180910390fd5b5b505050565b505050565b505050565b60606120c484846000856120cd565b90509392505050565b606082471015612112576040517f08c379a0000000000000000000000000000000000000000000000000000000008152600401612109906130a6565b60405180910390fd5b61211b856121e1565b61215a576040517f08c379a000000000000000000000000000000000000000000000000000000000815260040161215190613112565b60405180910390fd5b6000808673ffffffffffffffffffffffffffffffffffffffff1685876040516121839190613179565b60006040518083038185875af1925050503d80600081146121c0576040519150601f19603f3d011682016040523d82523d6000602084013e6121c5565b606091505b50915091506121d5828286612204565b92505050949350505050565b6000808273ffffffffffffffffffffffffffffffffffffffff163b119050919050565b6060831561221457829050612264565b6000835111156122275782518084602001fd5b816040517f08c379a000000000000000000000000000000000000000000000000000000000815260040161225b91906123dd565b60405180910390fd5b9392505050565b600080fd5b600073ffffffffffffffffffffffffffffffffffffffff82169050919050565b600061229b82612270565b9050919050565b6122ab81612290565b81146122b657600080fd5b50565b6000813590506122c8816122a2565b92915050565b6000819050919050565b6122e1816122ce565b81146122ec57600080fd5b50565b6000813590506122fe816122d8565b92915050565b6000806040838503121561231b5761231a61226b565b5b6000612329858286016122b9565b925050602061233a858286016122ef565b9150509250929050565b600081519050919050565b600082825260208201905092915050565b60005b8381101561237e578082015181840152602081019050612363565b8381111561238d576000848401525b50505050565b6000601f19601f8301169050919050565b60006123af82612344565b6123b9818561234f565b93506123c9818560208601612360565b6123d281612393565b840191505092915050565b600060208201905081810360008301526123f781846123a4565b905092915050565b60008115159050919050565b612414816123ff565b82525050565b600060208201905061242f600083018461240b565b92915050565b61243e816122ce565b82525050565b60006020820190506124596000830184612435565b92915050565b6000806000606084860312156124785761247761226b565b5b6000612486868287016122b9565b9350506020612497868287016122b9565b92505060406124a8868287016122ef565b9150509250925092565b6000602082840312156124c8576124c761226b565b5b60006124d6848285016122ef565b91505092915050565b600060ff82169050919050565b6124f5816124df565b82525050565b600060208201905061251060008301846124ec565b92915050565b61251f81612290565b82525050565b600060208201905061253a6000830184612516565b92915050565b6000602082840312156125565761255561226b565b5b6000612564848285016122b9565b91505092915050565b600080604083850312156125845761258361226b565b5b6000612592858286016122b9565b92505060206125a3858286016122b9565b9150509250929050565b6000819050919050565b60006125d26125cd6125c884612270565b6125ad565b612270565b9050919050565b60006125e4826125b7565b9050919050565b60006125f6826125d9565b9050919050565b612606816125eb565b82525050565b600060208201905061262160008301846125fd565b92915050565b7f21636f6e74726f6c6c6572000000000000000000000000000000000000000000600082015250565b600061265d600b8361234f565b915061266882612627565b602082019050919050565b6000602082019050818103600083015261268c81612650565b9050919050565b7f746f6b656e000000000000000000000000000000000000000000000000000000600082015250565b60006126c960058361234f565b91506126d482612693565b602082019050919050565b600060208201905081810360008301526126f8816126bc565b9050919050565b7f4e487b7100000000000000000000000000000000000000000000000000000000600052602260045260246000fd5b6000600282049050600182168061274657607f821691505b6020821081141561275a576127596126ff565b5b50919050565b60008151905061276f816122d8565b92915050565b60006020828403121561278b5761278a61226b565b5b600061279984828501612760565b91505092915050565b60006040820190506127b76000830185612516565b6127c46020830184612435565b9392505050565b7f4e487b7100000000000000000000000000000000000000000000000000000000600052601160045260246000fd5b6000612805826122ce565b9150612810836122ce565b9250827fffffffffffffffffffffffffffffffffffffffffffffffffffffffffffffffff03821115612845576128446127cb565b5b828201905092915050565b7f21676f7665726e616e6365000000000000000000000000000000000000000000600082015250565b6000612886600b8361234f565b915061289182612850565b602082019050919050565b600060208201905081810360008301526128b581612879565b9050919050565b7f45524332303a2064656372656173656420616c6c6f77616e63652062656c6f7760008201527f207a65726f000000000000000000000000000000000000000000000000000000602082015250565b600061291860258361234f565b9150612923826128bc565b604082019050919050565b600060208201905081810360008301526129478161290b565b9050919050565b7f45524332303a20617070726f76652066726f6d20746865207a65726f2061646460008201527f7265737300000000000000000000000000000000000000000000000000000000602082015250565b60006129aa60248361234f565b91506129b58261294e565b604082019050919050565b600060208201905081810360008301526129d98161299d565b9050919050565b7f45524332303a20617070726f766520746f20746865207a65726f20616464726560008201527f7373000000000000000000000000000000000000000000000000000000000000602082015250565b6000612a3c60228361234f565b9150612a47826129e0565b604082019050919050565b60006020820190508181036000830152612a6b81612a2f565b9050919050565b7f45524332303a20696e73756666696369656e7420616c6c6f77616e6365000000600082015250565b6000612aa8601d8361234f565b9150612ab382612a72565b602082019050919050565b60006020820190508181036000830152612ad781612a9b565b9050919050565b7f45524332303a207472616e736665722066726f6d20746865207a65726f20616460008201527f6472657373000000000000000000000000000000000000000000000000000000602082015250565b6000612b3a60258361234f565b9150612b4582612ade565b604082019050919050565b60006020820190508181036000830152612b6981612b2d565b9050919050565b7f45524332303a207472616e7366657220746f20746865207a65726f206164647260008201527f6573730000000000000000000000000000000000000000000000000000000000602082015250565b6000612bcc60238361234f565b9150612bd782612b70565b604082019050919050565b60006020820190508181036000830152612bfb81612bbf565b9050919050565b7f45524332303a207472616e7366657220616d6f756e742065786365656473206260008201527f616c616e63650000000000000000000000000000000000000000000000000000602082015250565b6000612c5e60268361234f565b9150612c6982612c02565b604082019050919050565b60006020820190508181036000830152612c8d81612c51565b9050919050565b6000612c9f826122ce565b9150612caa836122ce565b9250817fffffffffffffffffffffffffffffffffffffffffffffffffffffffffffffffff0483118215151615612ce357612ce26127cb565b5b828202905092915050565b7f4e487b7100000000000000000000000000000000000000000000000000000000600052601260045260246000fd5b6000612d28826122ce565b9150612d33836122ce565b925082612d4357612d42612cee565b5b828204905092915050565b7f45524332303a206275726e2066726f6d20746865207a65726f2061646472657360008201527f7300000000000000000000000000000000000000000000000000000000000000602082015250565b6000612daa60218361234f565b9150612db582612d4e565b604082019050919050565b60006020820190508181036000830152612dd981612d9d565b9050919050565b7f45524332303a206275726e20616d6f756e7420657863656564732062616c616e60008201527f6365000000000000000000000000000000000000000000000000000000000000602082015250565b6000612e3c60228361234f565b9150612e4782612de0565b604082019050919050565b60006020820190508181036000830152612e6b81612e2f565b9050919050565b6000612e7d826122ce565b9150612e88836122ce565b925082821015612e9b57612e9a6127cb565b5b828203905092915050565b6000606082019050612ebb6000830186612516565b612ec86020830185612516565b612ed56040830184612435565b949350505050565b7f45524332303a206d696e7420746f20746865207a65726f206164647265737300600082015250565b6000612f13601f8361234f565b9150612f1e82612edd565b602082019050919050565b60006020820190508181036000830152612f4281612f06565b9050919050565b612f52816123ff565b8114612f5d57600080fd5b50565b600081519050612f6f81612f49565b92915050565b600060208284031215612f8b57612f8a61226b565b5b6000612f9984828501612f60565b91505092915050565b7f5361666545524332303a204552433230206f7065726174696f6e20646964206e60008201527f6f74207375636365656400000000000000000000000000000000000000000000602082015250565b6000612ffe602a8361234f565b915061300982612fa2565b604082019050919050565b6000602082019050818103600083015261302d81612ff1565b9050919050565b7f416464726573733a20696e73756666696369656e742062616c616e636520666f60008201527f722063616c6c0000000000000000000000000000000000000000000000000000602082015250565b600061309060268361234f565b915061309b82613034565b604082019050919050565b600060208201905081810360008301526130bf81613083565b9050919050565b7f416464726573733a2063616c6c20746f206e6f6e2d636f6e7472616374000000600082015250565b60006130fc601d8361234f565b9150613107826130c6565b602082019050919050565b6000602082019050818103600083015261312b816130ef565b9050919050565b600081519050919050565b600081905092915050565b600061315382613132565b61315d818561313d565b935061316d818560208601612360565b80840191505092915050565b60006131858284613148565b91508190509291505056fea26469706673582212208fb85213ad628354ccc2072cc752cab51c49254fd21836379357efbd3aad571664736f6c63430008090033",
  "linkReferences": {},
  "deployedLinkReferences": {}
}