{
  "_format": "hh-sol-artifact-1",
  "contractName": "VaultController",
  "sourceName": "contracts/vault/VaultController.sol",
  "abi": [
    {
      "inputs": [
        {
          "internalType": "address",
          "name": "_governance",
          "type": "address"
        },
        {
          "internalType": "address",
          "name": "_strategist",
          "type": "address"
        },
        {
          "internalType": "address",
          "name": "_rewards",
          "type": "address"
        },
        {
          "internalType": "address",
          "name": "_splitter",
          "type": "address"
        },
        {
          "internalType": "uint256",
          "name": "_split",
          "type": "uint256"
        }
      ],
      "stateMutability": "nonpayable",
      "type": "constructor"
    },
    {
      "anonymous": false,
      "inputs": [
        {
          "indexed": true,
          "internalType": "bytes32",
          "name": "role",
          "type": "bytes32"
        },
        {
          "indexed": true,
          "internalType": "bytes32",
          "name": "previousAdminRole",
          "type": "bytes32"
        },
        {
          "indexed": true,
          "internalType": "bytes32",
          "name": "newAdminRole",
          "type": "bytes32"
        }
      ],
      "name": "RoleAdminChanged",
      "type": "event"
    },
    {
      "anonymous": false,
      "inputs": [
        {
          "indexed": true,
          "internalType": "bytes32",
          "name": "role",
          "type": "bytes32"
        },
        {
          "indexed": true,
          "internalType": "address",
          "name": "account",
          "type": "address"
        },
        {
          "indexed": true,
          "internalType": "address",
          "name": "sender",
          "type": "address"
        }
      ],
      "name": "RoleGranted",
      "type": "event"
    },
    {
      "anonymous": false,
      "inputs": [
        {
          "indexed": true,
          "internalType": "bytes32",
          "name": "role",
          "type": "bytes32"
        },
        {
          "indexed": true,
          "internalType": "address",
          "name": "account",
          "type": "address"
        },
        {
          "indexed": true,
          "internalType": "address",
          "name": "sender",
          "type": "address"
        }
      ],
      "name": "RoleRevoked",
      "type": "event"
    },
    {
      "inputs": [],
      "name": "DEFAULT_ADMIN_ROLE",
      "outputs": [
        {
          "internalType": "bytes32",
          "name": "",
          "type": "bytes32"
        }
      ],
      "stateMutability": "view",
      "type": "function"
    },
    {
      "inputs": [],
      "name": "MAX",
      "outputs": [
        {
          "internalType": "uint256",
          "name": "",
          "type": "uint256"
        }
      ],
      "stateMutability": "view",
      "type": "function"
    },
    {
      "inputs": [
        {
          "internalType": "address",
          "name": "_token",
          "type": "address"
        },
        {
          "internalType": "address",
          "name": "_strategy",
          "type": "address"
        }
      ],
      "name": "approveStrategy",
      "outputs": [],
      "stateMutability": "nonpayable",
      "type": "function"
    },
    {
      "inputs": [
        {
          "internalType": "address",
          "name": "",
          "type": "address"
        },
        {
          "internalType": "address",
          "name": "",
          "type": "address"
        }
      ],
      "name": "approvedStrategies",
      "outputs": [
        {
          "internalType": "bool",
          "name": "",
          "type": "bool"
        }
      ],
      "stateMutability": "view",
      "type": "function"
    },
    {
      "inputs": [
        {
          "internalType": "address",
          "name": "_token",
          "type": "address"
        }
      ],
      "name": "balanceOf",
      "outputs": [
        {
          "internalType": "uint256",
          "name": "",
          "type": "uint256"
        }
      ],
      "stateMutability": "view",
      "type": "function"
    },
    {
      "inputs": [
        {
          "internalType": "address",
          "name": "",
          "type": "address"
        },
        {
          "internalType": "address",
          "name": "",
          "type": "address"
        }
      ],
      "name": "converters",
      "outputs": [
        {
          "internalType": "address",
          "name": "",
          "type": "address"
        }
      ],
      "stateMutability": "view",
      "type": "function"
    },
    {
      "inputs": [
        {
          "internalType": "address",
          "name": "_token",
          "type": "address"
        },
        {
          "internalType": "uint256",
          "name": "_amount",
          "type": "uint256"
        }
      ],
      "name": "earn",
      "outputs": [],
      "stateMutability": "nonpayable",
      "type": "function"
    },
    {
      "inputs": [
        {
          "internalType": "address",
          "name": "_strategy",
          "type": "address"
        },
        {
          "internalType": "address",
          "name": "_token",
          "type": "address"
        },
        {
          "internalType": "uint256",
          "name": "parts",
          "type": "uint256"
        }
      ],
      "name": "getExpectedReturn",
      "outputs": [
        {
          "internalType": "uint256",
          "name": "expected",
          "type": "uint256"
        }
      ],
      "stateMutability": "view",
      "type": "function"
    },
    {
      "inputs": [
        {
          "internalType": "bytes32",
          "name": "role",
          "type": "bytes32"
        }
      ],
      "name": "getRoleAdmin",
      "outputs": [
        {
          "internalType": "bytes32",
          "name": "",
          "type": "bytes32"
        }
      ],
      "stateMutability": "view",
      "type": "function"
    },
    {
      "inputs": [],
      "name": "governance",
      "outputs": [
        {
          "internalType": "address",
          "name": "",
          "type": "address"
        }
      ],
      "stateMutability": "view",
      "type": "function"
    },
    {
      "inputs": [
        {
          "internalType": "bytes32",
          "name": "role",
          "type": "bytes32"
        },
        {
          "internalType": "address",
          "name": "account",
          "type": "address"
        }
      ],
      "name": "grantRole",
      "outputs": [],
      "stateMutability": "nonpayable",
      "type": "function"
    },
    {
      "inputs": [
        {
          "internalType": "bytes32",
          "name": "role",
          "type": "bytes32"
        },
        {
          "internalType": "address",
          "name": "account",
          "type": "address"
        }
      ],
      "name": "hasRole",
      "outputs": [
        {
          "internalType": "bool",
          "name": "",
          "type": "bool"
        }
      ],
      "stateMutability": "view",
      "type": "function"
    },
    {
      "inputs": [
        {
          "internalType": "address",
          "name": "_strategy",
          "type": "address"
        },
        {
          "internalType": "address",
          "name": "_token",
          "type": "address"
        }
      ],
      "name": "inCaseStrategyTokenGetStuck",
      "outputs": [],
      "stateMutability": "nonpayable",
      "type": "function"
    },
    {
      "inputs": [
        {
          "internalType": "address",
          "name": "_token",
          "type": "address"
        },
        {
          "internalType": "uint256",
          "name": "_amount",
          "type": "uint256"
        }
      ],
      "name": "inCaseTokensGetStuck",
      "outputs": [],
      "stateMutability": "nonpayable",
      "type": "function"
    },
    {
      "inputs": [
        {
          "internalType": "bytes32",
          "name": "role",
          "type": "bytes32"
        },
        {
          "internalType": "address",
          "name": "account",
          "type": "address"
        }
      ],
      "name": "renounceRole",
      "outputs": [],
      "stateMutability": "nonpayable",
      "type": "function"
    },
    {
      "inputs": [
        {
          "internalType": "bytes32",
          "name": "role",
          "type": "bytes32"
        },
        {
          "internalType": "address",
          "name": "account",
          "type": "address"
        }
      ],
      "name": "revokeRole",
      "outputs": [],
      "stateMutability": "nonpayable",
      "type": "function"
    },
    {
      "inputs": [
        {
          "internalType": "address",
          "name": "_token",
          "type": "address"
        },
        {
          "internalType": "address",
          "name": "_strategy",
          "type": "address"
        }
      ],
      "name": "revokeStrategy",
      "outputs": [],
      "stateMutability": "nonpayable",
      "type": "function"
    },
    {
      "inputs": [],
      "name": "rewards",
      "outputs": [
        {
          "internalType": "address",
          "name": "",
          "type": "address"
        }
      ],
      "stateMutability": "view",
      "type": "function"
    },
    {
      "inputs": [
        {
          "internalType": "address",
          "name": "_input",
          "type": "address"
        },
        {
          "internalType": "address",
          "name": "_output",
          "type": "address"
        },
        {
          "internalType": "address",
          "name": "_converter",
          "type": "address"
        }
      ],
      "name": "setConverter",
      "outputs": [],
      "stateMutability": "nonpayable",
      "type": "function"
    },
    {
      "inputs": [
        {
          "internalType": "address",
          "name": "_rewards",
          "type": "address"
        }
      ],
      "name": "setRewards",
      "outputs": [],
      "stateMutability": "nonpayable",
      "type": "function"
    },
    {
      "inputs": [
        {
          "internalType": "uint256",
          "name": "_split",
          "type": "uint256"
        }
      ],
      "name": "setSplit",
      "outputs": [],
      "stateMutability": "nonpayable",
      "type": "function"
    },
    {
      "inputs": [
        {
          "internalType": "address",
          "name": "_token",
          "type": "address"
        },
        {
          "internalType": "address",
          "name": "_strategy",
          "type": "address"
        }
      ],
      "name": "setStrategy",
      "outputs": [],
      "stateMutability": "nonpayable",
      "type": "function"
    },
    {
      "inputs": [
        {
          "internalType": "address",
          "name": "_token",
          "type": "address"
        },
        {
          "internalType": "address",
          "name": "_vault",
          "type": "address"
        }
      ],
      "name": "setVault",
      "outputs": [],
      "stateMutability": "nonpayable",
      "type": "function"
    },
    {
      "inputs": [
        {
          "internalType": "address",
          "name": "_splitter",
          "type": "address"
        }
      ],
      "name": "setsplitter",
      "outputs": [],
      "stateMutability": "nonpayable",
      "type": "function"
    },
    {
      "inputs": [],
      "name": "split",
      "outputs": [
        {
          "internalType": "uint256",
          "name": "",
          "type": "uint256"
        }
      ],
      "stateMutability": "view",
      "type": "function"
    },
    {
      "inputs": [],
      "name": "splitter",
      "outputs": [
        {
          "internalType": "address",
          "name": "",
          "type": "address"
        }
      ],
      "stateMutability": "view",
      "type": "function"
    },
    {
      "inputs": [
        {
          "internalType": "address",
          "name": "",
          "type": "address"
        }
      ],
      "name": "strategies",
      "outputs": [
        {
          "internalType": "address",
          "name": "",
          "type": "address"
        }
      ],
      "stateMutability": "view",
      "type": "function"
    },
    {
      "inputs": [],
      "name": "strategist",
      "outputs": [
        {
          "internalType": "address",
          "name": "",
          "type": "address"
        }
      ],
      "stateMutability": "view",
      "type": "function"
    },
    {
      "inputs": [
        {
          "internalType": "bytes4",
          "name": "interfaceId",
          "type": "bytes4"
        }
      ],
      "name": "supportsInterface",
      "outputs": [
        {
          "internalType": "bool",
          "name": "",
          "type": "bool"
        }
      ],
      "stateMutability": "view",
      "type": "function"
    },
    {
      "inputs": [
        {
          "internalType": "address",
          "name": "",
          "type": "address"
        }
      ],
      "name": "vaults",
      "outputs": [
        {
          "internalType": "address",
          "name": "",
          "type": "address"
        }
      ],
      "stateMutability": "view",
      "type": "function"
    },
    {
      "inputs": [
        {
          "internalType": "address",
          "name": "_token",
          "type": "address"
        },
        {
          "internalType": "uint256",
          "name": "_amount",
          "type": "uint256"
        }
      ],
      "name": "withdraw",
      "outputs": [],
      "stateMutability": "nonpayable",
      "type": "function"
    },
    {
      "inputs": [
        {
          "internalType": "address",
          "name": "_token",
          "type": "address"
        }
      ],
      "name": "withdrawAll",
      "outputs": [],
      "stateMutability": "nonpayable",
      "type": "function"
    }
  ],
  "bytecode": "0x60806040523480156200001157600080fd5b5060405162003614380380620036148339818101604052810190620000379190620001f2565b84600160006101000a81548173ffffffffffffffffffffffffffffffffffffffff021916908373ffffffffffffffffffffffffffffffffffffffff16021790555083600260006101000a81548173ffffffffffffffffffffffffffffffffffffffff021916908373ffffffffffffffffffffffffffffffffffffffff16021790555082600460006101000a81548173ffffffffffffffffffffffffffffffffffffffff021916908373ffffffffffffffffffffffffffffffffffffffff16021790555081600360006101000a81548173ffffffffffffffffffffffffffffffffffffffff021916908373ffffffffffffffffffffffffffffffffffffffff1602179055508060098190555050505050506200027a565b600080fd5b600073ffffffffffffffffffffffffffffffffffffffff82169050919050565b60006200017f8262000152565b9050919050565b620001918162000172565b81146200019d57600080fd5b50565b600081519050620001b18162000186565b92915050565b6000819050919050565b620001cc81620001b7565b8114620001d857600080fd5b50565b600081519050620001ec81620001c1565b92915050565b600080600080600060a086880312156200021157620002106200014d565b5b60006200022188828901620001a0565b95505060206200023488828901620001a0565b94505060406200024788828901620001a0565b93505060606200025a88828901620001a0565b92505060806200026d88828901620001db565b9150509295509295909350565b61338a806200028a6000396000f3fe608060405234801561001057600080fd5b50600436106101f05760003560e01c80639ec5a8941161010f578063ccd06318116100a2578063ec38a86211610071578063ec38a862146105c5578063f3fef3a3146105e1578063f7654176146105fd578063fa09e6301461061b576101f0565b8063ccd063181461053f578063d49d51811461055b578063d547741f14610579578063e4f2494d14610595576101f0565b8063a622ee7c116100de578063a622ee7c146104bb578063b02bf4b9146104eb578063c494448e14610507578063c6d758cb14610523576101f0565b80639ec5a89414610433578063a0c7fd8114610451578063a1578b6a1461046d578063a217fddf1461049d576101f0565b8063590bbb601161018757806370a082311161015657806370a082311461039b578063714ccf7b146103cb57806372cb5d97146103e757806391d1485414610403576101f0565b8063590bbb60146103155780635aa6e67514610331578063674e694f1461034f5780636dcd64e51461036b576101f0565b80632f2ff15d116101c35780632f2ff15d1461028f57806336568abe146102ab57806339ebf823146102c75780633cd8045e146102f7576101f0565b806301ffc9a7146101f5578063197baa6d146102255780631fe4a68614610241578063248a9ca31461025f575b600080fd5b61020f600480360381019061020a91906124dd565b610637565b60405161021c9190612525565b60405180910390f35b61023f600480360381019061023a919061259e565b6106b1565b005b610249610749565b60405161025691906125ed565b60405180910390f35b6102796004803603810190610274919061263e565b61076f565b604051610286919061267a565b60405180910390f35b6102a960048036038101906102a49190612695565b61078e565b005b6102c560048036038101906102c09190612695565b6107af565b005b6102e160048036038101906102dc91906126d5565b610832565b6040516102ee91906125ed565b60405180910390f35b6102ff610865565b60405161030c91906125ed565b60405180910390f35b61032f600480360381019061032a919061259e565b61088b565b005b61033961092c565b60405161034691906125ed565b60405180910390f35b61036960048036038101906103649190612738565b610952565b005b61038560048036038101906103809190612765565b610964565b60405161039291906127c7565b60405180910390f35b6103b560048036038101906103b091906126d5565b610b3b565b6040516103c291906127c7565b60405180910390f35b6103e560048036038101906103e0919061259e565b610c21565b005b61040160048036038101906103fc919061259e565b610d79565b005b61041d60048036038101906104189190612695565b610fee565b60405161042a9190612525565b60405180910390f35b61043b611058565b60405161044891906125ed565b60405180910390f35b61046b600480360381019061046691906126d5565b61107e565b005b6104876004803603810190610482919061259e565b6110ca565b6040516104949190612525565b60405180910390f35b6104a56110f9565b6040516104b2919061267a565b60405180910390f35b6104d560048036038101906104d091906126d5565b611100565b6040516104e291906125ed565b60405180910390f35b610505600480360381019061050091906127e2565b611133565b005b610521600480360381019061051c919061259e565b611471565b005b61053d600480360381019061053891906127e2565b611512565b005b61055960048036038101906105549190612822565b611549565b005b610563611611565b60405161057091906127c7565b60405180910390f35b610593600480360381019061058e9190612695565b611617565b005b6105af60048036038101906105aa919061259e565b611638565b6040516105bc91906125ed565b60405180910390f35b6105df60048036038101906105da91906126d5565b61167a565b005b6105fb60048036038101906105f691906127e2565b6116c6565b005b610605611861565b60405161061291906127c7565b60405180910390f35b610635600480360381019061063091906126d5565b611867565b005b60007f7965db0b000000000000000000000000000000000000000000000000000000007bffffffffffffffffffffffffffffffffffffffffffffffffffffffff1916827bffffffffffffffffffffffffffffffffffffffffffffffffffffffff191614806106aa57506106a982611952565b5b9050919050565b6106b96119bc565b8173ffffffffffffffffffffffffffffffffffffffff16631bd43be3826040518263ffffffff1660e01b81526004016106f291906125ed565b602060405180830381600087803b15801561070c57600080fd5b505af1158015610720573d6000803e3d6000fd5b505050506040513d601f19601f82011682018060405250810190610744919061288a565b505050565b600260009054906101000a900473ffffffffffffffffffffffffffffffffffffffff1681565b6000806000838152602001908152602001600020600101549050919050565b6107978261076f565b6107a081611aa6565b6107aa8383611aba565b505050565b6107b7611b9a565b73ffffffffffffffffffffffffffffffffffffffff168173ffffffffffffffffffffffffffffffffffffffff1614610824576040517f08c379a000000000000000000000000000000000000000000000000000000000815260040161081b9061293a565b60405180910390fd5b61082e8282611ba2565b5050565b60066020528060005260406000206000915054906101000a900473ffffffffffffffffffffffffffffffffffffffff1681565b600360009054906101000a900473ffffffffffffffffffffffffffffffffffffffff1681565b610893611c83565b6000600860008473ffffffffffffffffffffffffffffffffffffffff1673ffffffffffffffffffffffffffffffffffffffff16815260200190815260200160002060008373ffffffffffffffffffffffffffffffffffffffff1673ffffffffffffffffffffffffffffffffffffffff16815260200190815260200160002060006101000a81548160ff0219169083151502179055505050565b600160009054906101000a900473ffffffffffffffffffffffffffffffffffffffff1681565b61095a611c83565b8060098190555050565b6000808373ffffffffffffffffffffffffffffffffffffffff166370a08231866040518263ffffffff1660e01b81526004016109a091906125ed565b60206040518083038186803b1580156109b857600080fd5b505afa1580156109cc573d6000803e3d6000fd5b505050506040513d601f19601f820116820180604052508101906109f0919061288a565b905060008573ffffffffffffffffffffffffffffffffffffffff16631f1fcd516040518163ffffffff1660e01b815260040160206040518083038186803b158015610a3a57600080fd5b505afa158015610a4e573d6000803e3d6000fd5b505050506040513d601f19601f82011682018060405250810190610a72919061296f565b9050600360009054906101000a900473ffffffffffffffffffffffffffffffffffffffff1673ffffffffffffffffffffffffffffffffffffffff1663085e2c5b8683858860006040518663ffffffff1660e01b8152600401610ad89594939291906129e1565b60006040518083038186803b158015610af057600080fd5b505afa158015610b04573d6000803e3d6000fd5b505050506040513d6000823e3d601f19601f82011682018060405250810190610b2d9190612b8d565b508093505050509392505050565b6000600660008373ffffffffffffffffffffffffffffffffffffffff1673ffffffffffffffffffffffffffffffffffffffff16815260200190815260200160002060009054906101000a900473ffffffffffffffffffffffffffffffffffffffff1673ffffffffffffffffffffffffffffffffffffffff1663722713f76040518163ffffffff1660e01b815260040160206040518083038186803b158015610be257600080fd5b505afa158015610bf6573d6000803e3d6000fd5b505050506040513d601f19601f82011682018060405250810190610c1a919061288a565b9050919050565b610c296119bc565b600073ffffffffffffffffffffffffffffffffffffffff16600560008473ffffffffffffffffffffffffffffffffffffffff1673ffffffffffffffffffffffffffffffffffffffff16815260200190815260200160002060009054906101000a900473ffffffffffffffffffffffffffffffffffffffff1673ffffffffffffffffffffffffffffffffffffffff1614610cf7576040517f08c379a0000000000000000000000000000000000000000000000000000000008152600401610cee90612c35565b60405180910390fd5b80600560008473ffffffffffffffffffffffffffffffffffffffff1673ffffffffffffffffffffffffffffffffffffffff16815260200190815260200160002060006101000a81548173ffffffffffffffffffffffffffffffffffffffff021916908373ffffffffffffffffffffffffffffffffffffffff1602179055505050565b610d816119bc565b60011515600860008473ffffffffffffffffffffffffffffffffffffffff1673ffffffffffffffffffffffffffffffffffffffff16815260200190815260200160002060008373ffffffffffffffffffffffffffffffffffffffff1673ffffffffffffffffffffffffffffffffffffffff16815260200190815260200160002060009054906101000a900460ff16151514610e51576040517f08c379a0000000000000000000000000000000000000000000000000000000008152600401610e4890612ca1565b60405180910390fd5b6000600660008473ffffffffffffffffffffffffffffffffffffffff1673ffffffffffffffffffffffffffffffffffffffff16815260200190815260200160002060009054906101000a900473ffffffffffffffffffffffffffffffffffffffff169050600073ffffffffffffffffffffffffffffffffffffffff168173ffffffffffffffffffffffffffffffffffffffff1614610f6b578073ffffffffffffffffffffffffffffffffffffffff1663853828b66040518163ffffffff1660e01b8152600401602060405180830381600087803b158015610f3157600080fd5b505af1158015610f45573d6000803e3d6000fd5b505050506040513d601f19601f82011682018060405250810190610f69919061288a565b505b81600660008573ffffffffffffffffffffffffffffffffffffffff1673ffffffffffffffffffffffffffffffffffffffff16815260200190815260200160002060006101000a81548173ffffffffffffffffffffffffffffffffffffffff021916908373ffffffffffffffffffffffffffffffffffffffff160217905550505050565b600080600084815260200190815260200160002060000160008373ffffffffffffffffffffffffffffffffffffffff1673ffffffffffffffffffffffffffffffffffffffff16815260200190815260200160002060009054906101000a900460ff16905092915050565b600460009054906101000a900473ffffffffffffffffffffffffffffffffffffffff1681565b611086611c83565b80600360006101000a81548173ffffffffffffffffffffffffffffffffffffffff021916908373ffffffffffffffffffffffffffffffffffffffff16021790555050565b60086020528160005260406000206020528060005260406000206000915091509054906101000a900460ff1681565b6000801b81565b60056020528060005260406000206000915054906101000a900473ffffffffffffffffffffffffffffffffffffffff1681565b6000600660008473ffffffffffffffffffffffffffffffffffffffff1673ffffffffffffffffffffffffffffffffffffffff16815260200190815260200160002060009054906101000a900473ffffffffffffffffffffffffffffffffffffffff16905060008173ffffffffffffffffffffffffffffffffffffffff16631f1fcd516040518163ffffffff1660e01b815260040160206040518083038186803b1580156111df57600080fd5b505afa1580156111f3573d6000803e3d6000fd5b505050506040513d601f19601f82011682018060405250810190611217919061296f565b905061122281611d15565b8373ffffffffffffffffffffffffffffffffffffffff168173ffffffffffffffffffffffffffffffffffffffff16146113df576000600760008673ffffffffffffffffffffffffffffffffffffffff1673ffffffffffffffffffffffffffffffffffffffff16815260200190815260200160002060008373ffffffffffffffffffffffffffffffffffffffff1673ffffffffffffffffffffffffffffffffffffffff16815260200190815260200160002060009054906101000a900473ffffffffffffffffffffffffffffffffffffffff16905061132181858773ffffffffffffffffffffffffffffffffffffffff16611e959092919063ffffffff16565b8073ffffffffffffffffffffffffffffffffffffffff1663def2489b846040518263ffffffff1660e01b815260040161135a91906125ed565b602060405180830381600087803b15801561137457600080fd5b505af1158015611388573d6000803e3d6000fd5b505050506040513d601f19601f820116820180604052508101906113ac919061288a565b93506113d983858473ffffffffffffffffffffffffffffffffffffffff16611e959092919063ffffffff16565b5061140b565b61140a82848673ffffffffffffffffffffffffffffffffffffffff16611e959092919063ffffffff16565b5b8173ffffffffffffffffffffffffffffffffffffffff1663d0e30db06040518163ffffffff1660e01b8152600401600060405180830381600087803b15801561145357600080fd5b505af1158015611467573d6000803e3d6000fd5b5050505050505050565b611479611c83565b6001600860008473ffffffffffffffffffffffffffffffffffffffff1673ffffffffffffffffffffffffffffffffffffffff16815260200190815260200160002060008373ffffffffffffffffffffffffffffffffffffffff1673ffffffffffffffffffffffffffffffffffffffff16815260200190815260200160002060006101000a81548160ff0219169083151502179055505050565b61151a6119bc565b61154533828473ffffffffffffffffffffffffffffffffffffffff16611e959092919063ffffffff16565b5050565b6115516119bc565b80600760008573ffffffffffffffffffffffffffffffffffffffff1673ffffffffffffffffffffffffffffffffffffffff16815260200190815260200160002060008473ffffffffffffffffffffffffffffffffffffffff1673ffffffffffffffffffffffffffffffffffffffff16815260200190815260200160002060006101000a81548173ffffffffffffffffffffffffffffffffffffffff021916908373ffffffffffffffffffffffffffffffffffffffff160217905550505050565b61271081565b6116208261076f565b61162981611aa6565b6116338383611ba2565b505050565b60076020528160005260406000206020528060005260406000206000915091509054906101000a900473ffffffffffffffffffffffffffffffffffffffff1681565b611682611c83565b80600460006101000a81548173ffffffffffffffffffffffffffffffffffffffff021916908373ffffffffffffffffffffffffffffffffffffffff16021790555050565b600560008373ffffffffffffffffffffffffffffffffffffffff1673ffffffffffffffffffffffffffffffffffffffff16815260200190815260200160002060009054906101000a900473ffffffffffffffffffffffffffffffffffffffff1673ffffffffffffffffffffffffffffffffffffffff163373ffffffffffffffffffffffffffffffffffffffff1614611793576040517f08c379a000000000000000000000000000000000000000000000000000000000815260040161178a90612d0d565b60405180910390fd5b600660008373ffffffffffffffffffffffffffffffffffffffff1673ffffffffffffffffffffffffffffffffffffffff16815260200190815260200160002060009054906101000a900473ffffffffffffffffffffffffffffffffffffffff1673ffffffffffffffffffffffffffffffffffffffff16632e1a7d4d826040518263ffffffff1660e01b815260040161182b91906127c7565b600060405180830381600087803b15801561184557600080fd5b505af1158015611859573d6000803e3d6000fd5b505050505050565b60095481565b61186f6119bc565b600660008273ffffffffffffffffffffffffffffffffffffffff1673ffffffffffffffffffffffffffffffffffffffff16815260200190815260200160002060009054906101000a900473ffffffffffffffffffffffffffffffffffffffff1673ffffffffffffffffffffffffffffffffffffffff1663853828b66040518163ffffffff1660e01b8152600401602060405180830381600087803b15801561191657600080fd5b505af115801561192a573d6000803e3d6000fd5b505050506040513d601f19601f8201168201806040525081019061194e919061288a565b5050565b60007f01ffc9a7000000000000000000000000000000000000000000000000000000007bffffffffffffffffffffffffffffffffffffffffffffffffffffffff1916827bffffffffffffffffffffffffffffffffffffffffffffffffffffffff1916149050919050565b600260009054906101000a900473ffffffffffffffffffffffffffffffffffffffff1673ffffffffffffffffffffffffffffffffffffffff163373ffffffffffffffffffffffffffffffffffffffff161480611a655750600160009054906101000a900473ffffffffffffffffffffffffffffffffffffffff1673ffffffffffffffffffffffffffffffffffffffff163373ffffffffffffffffffffffffffffffffffffffff16145b611aa4576040517f08c379a0000000000000000000000000000000000000000000000000000000008152600401611a9b90612d79565b60405180910390fd5b565b611ab781611ab2611b9a565b611f1b565b50565b611ac48282610fee565b611b9657600160008084815260200190815260200160002060000160008373ffffffffffffffffffffffffffffffffffffffff1673ffffffffffffffffffffffffffffffffffffffff16815260200190815260200160002060006101000a81548160ff021916908315150217905550611b3b611b9a565b73ffffffffffffffffffffffffffffffffffffffff168173ffffffffffffffffffffffffffffffffffffffff16837f2f8788117e7eff1d82e926ec794901d17c78024a50270940304540a733656f0d60405160405180910390a45b5050565b600033905090565b611bac8282610fee565b15611c7f57600080600084815260200190815260200160002060000160008373ffffffffffffffffffffffffffffffffffffffff1673ffffffffffffffffffffffffffffffffffffffff16815260200190815260200160002060006101000a81548160ff021916908315150217905550611c24611b9a565b73ffffffffffffffffffffffffffffffffffffffff168173ffffffffffffffffffffffffffffffffffffffff16837ff6391f5c32d9c69d2a47ea670b442974b53935d1edc7fd64eb21e047a839171b60405160405180910390a45b5050565b600160009054906101000a900473ffffffffffffffffffffffffffffffffffffffff1673ffffffffffffffffffffffffffffffffffffffff163373ffffffffffffffffffffffffffffffffffffffff1614611d13576040517f08c379a0000000000000000000000000000000000000000000000000000000008152600401611d0a90612d79565b60405180910390fd5b565b600560008273ffffffffffffffffffffffffffffffffffffffff1673ffffffffffffffffffffffffffffffffffffffff16815260200190815260200160002060009054906101000a900473ffffffffffffffffffffffffffffffffffffffff1673ffffffffffffffffffffffffffffffffffffffff163373ffffffffffffffffffffffffffffffffffffffff161480611dfb5750600260009054906101000a900473ffffffffffffffffffffffffffffffffffffffff1673ffffffffffffffffffffffffffffffffffffffff163373ffffffffffffffffffffffffffffffffffffffff16145b80611e535750600160009054906101000a900473ffffffffffffffffffffffffffffffffffffffff1673ffffffffffffffffffffffffffffffffffffffff163373ffffffffffffffffffffffffffffffffffffffff16145b611e92576040517f08c379a0000000000000000000000000000000000000000000000000000000008152600401611e8990612d79565b60405180910390fd5b50565b611f168363a9059cbb60e01b8484604051602401611eb4929190612d99565b604051602081830303815290604052907bffffffffffffffffffffffffffffffffffffffffffffffffffffffff19166020820180517bffffffffffffffffffffffffffffffffffffffffffffffffffffffff8381831617835250505050611fb8565b505050565b611f258282610fee565b611fb457611f4a8173ffffffffffffffffffffffffffffffffffffffff16601461207f565b611f588360001c602061207f565b604051602001611f69929190612ed4565b6040516020818303038152906040526040517f08c379a0000000000000000000000000000000000000000000000000000000008152600401611fab9190612f47565b60405180910390fd5b5050565b600061201a826040518060400160405280602081526020017f5361666545524332303a206c6f772d6c6576656c2063616c6c206661696c65648152508573ffffffffffffffffffffffffffffffffffffffff166122bb9092919063ffffffff16565b905060008151111561207a578080602001905181019061203a9190612f95565b612079576040517f08c379a000000000000000000000000000000000000000000000000000000000815260040161207090613034565b60405180910390fd5b5b505050565b6060600060028360026120929190613083565b61209c91906130dd565b67ffffffffffffffff8111156120b5576120b4612a4a565b5b6040519080825280601f01601f1916602001820160405280156120e75781602001600182028036833780820191505090505b5090507f30000000000000000000000000000000000000000000000000000000000000008160008151811061211f5761211e613133565b5b60200101907effffffffffffffffffffffffffffffffffffffffffffffffffffffffffffff1916908160001a9053507f78000000000000000000000000000000000000000000000000000000000000008160018151811061218357612182613133565b5b60200101907effffffffffffffffffffffffffffffffffffffffffffffffffffffffffffff1916908160001a905350600060018460026121c39190613083565b6121cd91906130dd565b90505b600181111561226d577f3031323334353637383961626364656600000000000000000000000000000000600f86166010811061220f5761220e613133565b5b1a60f81b82828151811061222657612225613133565b5b60200101907effffffffffffffffffffffffffffffffffffffffffffffffffffffffffffff1916908160001a905350600485901c94508061226690613162565b90506121d0565b50600084146122b1576040517f08c379a00000000000000000000000000000000000000000000000000000000081526004016122a8906131d8565b60405180910390fd5b8091505092915050565b60606122ca84846000856122d3565b90509392505050565b606082471015612318576040517f08c379a000000000000000000000000000000000000000000000000000000000815260040161230f9061326a565b60405180910390fd5b612321856123e7565b612360576040517f08c379a0000000000000000000000000000000000000000000000000000000008152600401612357906132d6565b60405180910390fd5b6000808673ffffffffffffffffffffffffffffffffffffffff168587604051612389919061333d565b60006040518083038185875af1925050503d80600081146123c6576040519150601f19603f3d011682016040523d82523d6000602084013e6123cb565b606091505b50915091506123db82828661240a565b92505050949350505050565b6000808273ffffffffffffffffffffffffffffffffffffffff163b119050919050565b6060831561241a5782905061246a565b60008351111561242d5782518084602001fd5b816040517f08c379a00000000000000000000000000000000000000000000000000000000081526004016124619190612f47565b60405180910390fd5b9392505050565b6000604051905090565b600080fd5b600080fd5b60007fffffffff0000000000000000000000000000000000000000000000000000000082169050919050565b6124ba81612485565b81146124c557600080fd5b50565b6000813590506124d7816124b1565b92915050565b6000602082840312156124f3576124f261247b565b5b6000612501848285016124c8565b91505092915050565b60008115159050919050565b61251f8161250a565b82525050565b600060208201905061253a6000830184612516565b92915050565b600073ffffffffffffffffffffffffffffffffffffffff82169050919050565b600061256b82612540565b9050919050565b61257b81612560565b811461258657600080fd5b50565b60008135905061259881612572565b92915050565b600080604083850312156125b5576125b461247b565b5b60006125c385828601612589565b92505060206125d485828601612589565b9150509250929050565b6125e781612560565b82525050565b600060208201905061260260008301846125de565b92915050565b6000819050919050565b61261b81612608565b811461262657600080fd5b50565b60008135905061263881612612565b92915050565b6000602082840312156126545761265361247b565b5b600061266284828501612629565b91505092915050565b61267481612608565b82525050565b600060208201905061268f600083018461266b565b92915050565b600080604083850312156126ac576126ab61247b565b5b60006126ba85828601612629565b92505060206126cb85828601612589565b9150509250929050565b6000602082840312156126eb576126ea61247b565b5b60006126f984828501612589565b91505092915050565b6000819050919050565b61271581612702565b811461272057600080fd5b50565b6000813590506127328161270c565b92915050565b60006020828403121561274e5761274d61247b565b5b600061275c84828501612723565b91505092915050565b60008060006060848603121561277e5761277d61247b565b5b600061278c86828701612589565b935050602061279d86828701612589565b92505060406127ae86828701612723565b9150509250925092565b6127c181612702565b82525050565b60006020820190506127dc60008301846127b8565b92915050565b600080604083850312156127f9576127f861247b565b5b600061280785828601612589565b925050602061281885828601612723565b9150509250929050565b60008060006060848603121561283b5761283a61247b565b5b600061284986828701612589565b935050602061285a86828701612589565b925050604061286b86828701612589565b9150509250925092565b6000815190506128848161270c565b92915050565b6000602082840312156128a05761289f61247b565b5b60006128ae84828501612875565b91505092915050565b600082825260208201905092915050565b7f416363657373436f6e74726f6c3a2063616e206f6e6c792072656e6f756e636560008201527f20726f6c657320666f722073656c660000000000000000000000000000000000602082015250565b6000612924602f836128b7565b915061292f826128c8565b604082019050919050565b6000602082019050818103600083015261295381612917565b9050919050565b60008151905061296981612572565b92915050565b6000602082840312156129855761298461247b565b5b60006129938482850161295a565b91505092915050565b6000819050919050565b6000819050919050565b60006129cb6129c66129c18461299c565b6129a6565b612702565b9050919050565b6129db816129b0565b82525050565b600060a0820190506129f660008301886125de565b612a0360208301876125de565b612a1060408301866127b8565b612a1d60608301856127b8565b612a2a60808301846129d2565b9695505050505050565b600080fd5b6000601f19601f8301169050919050565b7f4e487b7100000000000000000000000000000000000000000000000000000000600052604160045260246000fd5b612a8282612a39565b810181811067ffffffffffffffff82111715612aa157612aa0612a4a565b5b80604052505050565b6000612ab4612471565b9050612ac08282612a79565b919050565b600067ffffffffffffffff821115612ae057612adf612a4a565b5b602082029050602081019050919050565b600080fd5b6000612b09612b0484612ac5565b612aaa565b90508083825260208201905060208402830185811115612b2c57612b2b612af1565b5b835b81811015612b555780612b418882612875565b845260208401935050602081019050612b2e565b5050509392505050565b600082601f830112612b7457612b73612a34565b5b8151612b84848260208601612af6565b91505092915050565b60008060408385031215612ba457612ba361247b565b5b6000612bb285828601612875565b925050602083015167ffffffffffffffff811115612bd357612bd2612480565b5b612bdf85828601612b5f565b9150509250929050565b7f7661756c74000000000000000000000000000000000000000000000000000000600082015250565b6000612c1f6005836128b7565b9150612c2a82612be9565b602082019050919050565b60006020820190508181036000830152612c4e81612c12565b9050919050565b7f21617070726f7665640000000000000000000000000000000000000000000000600082015250565b6000612c8b6009836128b7565b9150612c9682612c55565b602082019050919050565b60006020820190508181036000830152612cba81612c7e565b9050919050565b7f217661756c740000000000000000000000000000000000000000000000000000600082015250565b6000612cf76006836128b7565b9150612d0282612cc1565b602082019050919050565b60006020820190508181036000830152612d2681612cea565b9050919050565b7f21617574686f72697a6564000000000000000000000000000000000000000000600082015250565b6000612d63600b836128b7565b9150612d6e82612d2d565b602082019050919050565b60006020820190508181036000830152612d9281612d56565b9050919050565b6000604082019050612dae60008301856125de565b612dbb60208301846127b8565b9392505050565b600081905092915050565b7f416363657373436f6e74726f6c3a206163636f756e7420000000000000000000600082015250565b6000612e03601783612dc2565b9150612e0e82612dcd565b601782019050919050565b600081519050919050565b60005b83811015612e42578082015181840152602081019050612e27565b83811115612e51576000848401525b50505050565b6000612e6282612e19565b612e6c8185612dc2565b9350612e7c818560208601612e24565b80840191505092915050565b7f206973206d697373696e6720726f6c6520000000000000000000000000000000600082015250565b6000612ebe601183612dc2565b9150612ec982612e88565b601182019050919050565b6000612edf82612df6565b9150612eeb8285612e57565b9150612ef682612eb1565b9150612f028284612e57565b91508190509392505050565b6000612f1982612e19565b612f2381856128b7565b9350612f33818560208601612e24565b612f3c81612a39565b840191505092915050565b60006020820190508181036000830152612f618184612f0e565b905092915050565b612f728161250a565b8114612f7d57600080fd5b50565b600081519050612f8f81612f69565b92915050565b600060208284031215612fab57612faa61247b565b5b6000612fb984828501612f80565b91505092915050565b7f5361666545524332303a204552433230206f7065726174696f6e20646964206e60008201527f6f74207375636365656400000000000000000000000000000000000000000000602082015250565b600061301e602a836128b7565b915061302982612fc2565b604082019050919050565b6000602082019050818103600083015261304d81613011565b9050919050565b7f4e487b7100000000000000000000000000000000000000000000000000000000600052601160045260246000fd5b600061308e82612702565b915061309983612702565b9250817fffffffffffffffffffffffffffffffffffffffffffffffffffffffffffffffff04831182151516156130d2576130d1613054565b5b828202905092915050565b60006130e882612702565b91506130f383612702565b9250827fffffffffffffffffffffffffffffffffffffffffffffffffffffffffffffffff0382111561312857613127613054565b5b828201905092915050565b7f4e487b7100000000000000000000000000000000000000000000000000000000600052603260045260246000fd5b600061316d82612702565b9150600082141561318157613180613054565b5b600182039050919050565b7f537472696e67733a20686578206c656e67746820696e73756666696369656e74600082015250565b60006131c26020836128b7565b91506131cd8261318c565b602082019050919050565b600060208201905081810360008301526131f1816131b5565b9050919050565b7f416464726573733a20696e73756666696369656e742062616c616e636520666f60008201527f722063616c6c0000000000000000000000000000000000000000000000000000602082015250565b60006132546026836128b7565b915061325f826131f8565b604082019050919050565b6000602082019050818103600083015261328381613247565b9050919050565b7f416464726573733a2063616c6c20746f206e6f6e2d636f6e7472616374000000600082015250565b60006132c0601d836128b7565b91506132cb8261328a565b602082019050919050565b600060208201905081810360008301526132ef816132b3565b9050919050565b600081519050919050565b600081905092915050565b6000613317826132f6565b6133218185613301565b9350613331818560208601612e24565b80840191505092915050565b6000613349828461330c565b91508190509291505056fea264697066735822122058bbfbdaa0cb985f971cf5add8985eeef721c08ab6354a888685367a9b5de75f64736f6c63430008090033",
  "linkReferences": {},
  "deployedLinkReferences": {}
}